:020000040800F2
:10000000E05500209D01000881290008A701000893
:10001000A9010008AB010008AD01000800000000C4
:10002000000000000000000000000000AF01000818
:10003000B101000800000000B3010008752A0008A3
:10004000B7010008B7010008B7010008B7010008B0
:10005000B7010008B701000841080008B70100080F
:10006000B7010008B7010008B7010008B701000890
:10007000B7010008B7010008B7010008B701000880
:10008000C1070008CD070008B7010008B701000844
:10009000B7010008B7010008B701000847080008C9
:1000A000B7010008B7010008B7010008B701000850
:1000B000B7010008B7010008B7010008B701000840
:1000C000B7010008B7010008B7010008B701000830
:1000D000B70100083530000841300008B7010008BA
:1000E000B7010008B7010008B7010008B701000810
:1000F000B7010008B7010008B7010008B701000800
:10010000B7010008B7010008B7010008B7010008EF
:10011000B7010008B7010008B7010008B7010008DF
:10012000B7010008B7010008B7010008B7010008CF
:10013000B70100080000000000000000B70100083F
:10014000B7010008B7010008B7010008B7010008AF
:10015000D9070008B7010008E5070008B701000843
:10016000B7010008B7010008B7010008B70100088F
:10017000B7010008B70100080000000000000000FF
:10018000B7010008B7010008DFF80CD000F006FB4B
:10019000004800470D540008E055002006488047FD
:1001A00006480047FEE7FEE7FEE7FEE7FEE7FEE75C
:1001B000FEE7FEE7FEE7FEE7192B000889010008CD
:1001C00040EA01039B0703D009E008C9121F08C0D9
:1001D000042AFAD203E011F8013B00F8013B521E59
:1001E000F9D27047D2B201E000F8012B491EFBD2D0
:1001F00070470022F6E710B513460A460446194632
:10020000FFF7F0FF204610BD30B50446002003463E
:1002100000E05B1C934203D2E05CCD5C401BF8D055
:1002200030BD2DE9FE4F804681EA0300C00F0C4629
:10023000009021F0004123F00045B8EB0200A941F5
:1002400005D24046214690461C460B46024623F006
:100250000040104347D0270DC7F30A00C3F30A51EB
:100260000290401A019040286BDAC3F3130040F467
:10027000801B0098924620B10023D2EB030A63EB67
:100280000B0B01985946C0F14002504600F0F7F9B7
:1002900006460D4650465946019A00F00FFA10EBFB
:1002A00008006141002487EA115284EAE7731A4387
:1002B00040D0009A62B3019A012A4FEA075215DC36
:1002C000001B61EB02014FF0004202EA0752CDE948
:1002D0000042001C41F5801132462B4600F00FFA17
:1002E00003B0BDE8F08F40462146F9E7001B61EB03
:1002F0000201001C41F5801300185B412018A2F593
:10030000001747EB030140EAD570B6196D4111E0C3
:100310006D084FEA360645EAC0754FEA0752001BE2
:1003200061EB0201001C41F5801149084FEA3000E1
:100330000019514132462B4603B0BDE8F04F00F0A2
:10034000CFB90098012240000023D0EB020263EBFA
:10035000E073009821464FEAE074B8EB000061EBCF
:100360000401E9E783F000435BE781F0004158E7CF
:100370002DE9FE4F81EA030404F0004421F000411E
:1003800000944FF0000B23F0004350EA01045ED0CC
:1003900052EA03045BD0C3F30A54C1F30A552C4458
:1003A000A4F2F3340194A0FB0254C1F3130141F40D
:1003B0008011C3F3130343F4801301FB024400FBD9
:1003C000034E840A970A44EA815447EA8357A4FB00
:1003D000076802958D0A05FB07854FEA932C04FBFD
:1003E0000C542705029D4FEA065847EA1637B5EB2D
:1003F00008056EEB070C870E920E47EA811742EA5A
:100400008312A7FB0201B6EB0B0164EB00042B0D7A
:1004100043EA0C335E1844EB1C50DA465146E7FBC6
:100420000201C5F313044FEA0B3343EA14534FEAB6
:100430000432019C43EA0603A4F10C040294009CDC
:10044000CDE900B400F05BF903B0BDE8F08F002007
:100450000146F9E72DE9F04D81EA030404F0004B71
:1004600021F0004514464FF0000A23F0004150EA05
:10047000050220D054EA01021DD0C5F30A570246F6
:10048000C5F31303C1F31300C1F30A5640F48015FA
:1004900043F48013A7EB0608101BD64608F2FD387C
:1004A00073EB050002D308F1010801E092185B41EB
:1004B000B8F1000F03DA00200146BDE8F08D0020FE
:1004C0004FF48011064684460EE0171B73EB0507B8
:1004D00005D3121B63EB050306434CEA010C4908E4
:1004E0004FEA300092185B4150EA0107EDD152EA21
:1004F000030012D082EA040083EA0501084305D014
:10050000101BAB4106D20122002306E000224FF06F
:10051000004302E06FF0010253101AEB06004CEBAF
:10052000085110EB0A0041EB0B01BDE8F04D00F063
:10053000D7B80EB540F2334102910021CDE9001148
:100540000A460B4600F0DBF803B000BD70B5C1F3FE
:100550000A5201F000450024C1F3130140F2FF33B9
:1005600041F480119A4201DA002070BD40F2334319
:100570009A42A2F2334203DC524200F08FF800E0CC
:1005800090402C43F1D0404270BDC1F30A5210B5E7
:10059000C1F3130140F2FF3341F480119A4201DAB2
:1005A000002010BD40F233439A42A2F2334203DCF2
:1005B000524200F073F810BD904010BD30B5041EDB
:1005C00071F1000404DB4FF00044404264EB010190
:1005D000141E73F1000405DB1C464FF00043524229
:1005E00063EB04038B4208BF824230BD30B5041E6A
:1005F00071F1000404DB4FF00044404264EB010160
:10060000141E73F1000405DB1C464FF000435242F8
:1006100063EB0403994208BF904230BD2DE9F05FBF
:100620000546002092469B46884606468146402461
:100630001BE0284641464746224600F02FF8534625
:100640005A46C01A914110D311461846224600F06E
:1006500016F82D1A67EB01084F46224601200021AB
:1006600000F00DF817EB00094E41201EA4F1010423
:10067000DFDC484631462A464346BDE8F09F202A43
:1006800004DB203A00FA02F1002070479140C2F1E9
:10069000200320FA03F3194390407047202A04DB1B
:1006A000203A21FA02F00021704721FA02F3D040EB
:1006B000C2F120029140084319467047202A06DB08
:1006C000CB17203A41FA02F043EAE07306E041FA20
:1006D00002F3D040C2F1200291400843194670470E
:1006E00010B5141E73F1000408DA401C41F100013A
:1006F00092185B411A4301D120F0010010BD2DE991
:10070000F04D92469B4611B1B1FA81F202E0B0FA87
:1007100080F220329046FFF7B2FF04460F4640EACF
:100720000A0041EA0B0153465A46084313D01146CA
:1007300053EA010019D0C8F140025046FFF7AEFF5E
:1007400005460E46504659464246FFF798FF084375
:1007500005D0012004E020463946BDE8F08D002098
:10076000054346EAE0762C4337430A986305E40ADA
:10077000A0EB08000022FD0A44EA47540A3002D5E3
:1007800000200146E9E7010510196941DDE9084546
:1007900000196941BDE8F04DA2E70000064C074D85
:1007A00006E0E06840F0010394E807009847103441
:1007B000AC42F6D3FFF7ECFCDC650008FC650008F2
:1007C000014800F045B80000A04F0020014800F0AB
:1007D0003FB80000484F0020014800F039B8000041
:1007E000984E0020014800F033B80000F04E002081
:1007F00001681823CAB2103AB2FBF3F2054B6FF34B
:100800000901032A9B5C436500D9091D016508465F
:1008100070470000F664000830B50468256825F4C8
:1008200080252560046863608368402B036803D0DB
:1008300099600068C26030BD9A600068C16030BDD8
:10084000012000F069B94FF4007000F065B90000B4
:100850002DE9F041056D0446296890F854200820E0
:1008600000FA02F211424FF004074FF0000617D0D1
:1008700021680A68520713D50A6822F004020A6048
:1008800094F854108840A860E06C40F00100E064E7
:1008900084F8357084F83460A16C09B1204688472B
:1008A000296894F85420514800FA02F2114217D0F6
:1008B00021684A69120613D54A6922F080024A610A
:1008C00094F854108840A860E06C40F00200E064A6
:1008D00084F8357084F83460A16C09B120468847EB
:1008E0002968424894F85420C01C00FA02F21142D0
:1008F00017D021680A68920713D50A6822F002020D
:100900000A6094F854108840A860E06C40F004003D
:10091000E06484F8357084F83460A16C09B1204635
:1009200088472A6894F85410102000FA01F31A42FC
:100930001BD021680A68120717D50A6857034FF0C1
:10094000310228D5AB6020680168090303D400BFD9
:1009500084F8352005E00068000302D5412084F8C2
:100960003500216C09B1204688472B6894F8541053
:10097000202000FA01F2134236D021680B68DB0612
:1009800032D50B685B031CD5AA6020680168090397
:100990000DD4616C0FE00B68DB0503D40B6823F00A
:1009A00008030B6094F854108840A860D0E70068F2
:1009B000000319D5E16B002916D02046BDE8F041AF
:1009C00008470A68D20503D40A6822F010020A60B8
:1009D00094F854108840A860E06CE064112084F81A
:1009E000350084F83460E5E7BDE8F081010080005F
:1009F00070B504001AD00220636A84F835002268BA
:100A0000116818480140D4E901052843D4E9035688
:100A10003543284365692843A5692843E569284388
:100A2000256A28430843042B02D005E0012070BD4D
:100A3000D4E90B1319430843106022685069616AB6
:100A400020F007000843042901D1A16A084350613E
:100A50002046FFF7CDFE0020E064012084F8350039
:100A6000002070BD3F8010F070B5044690F834004F
:100A700001281ED0012084F83400022084F83500BB
:100A80002068056825F0010505602046FFF7C4FED3
:100A90002068016841F01E0101602068416941F051
:100AA000800141612068016841F00101016000207E
:100AB00070BD022070BD31B500F028F9044600F089
:100AC00025F90099001B8842F9D338BD70B501287B
:100AD0000AD0B0F5007F17D1012001F0F9FD0B49D4
:100AE0000120087017200BE0094C0A4D206803F024
:100AF000C7FA0121284600F0FBF80028F6D10620AD
:100B0000BDE8704000F054BB70BD00000000002044
:100B1000B800002000040240044910B50A680242EF
:100B200002D00860FFF7D2FF10BD0000143C014066
:100B30002DE9F84FDFF888B100224FF001084FF09F
:100B4000030A4FF00F090BF1040E00BF0B6808FAFF
:100B500002F42340A3426ED14D68022D01D0122D24
:100B60000ED1D50800EB850CDCF820505607F70EA7
:100B700009FA07F6B5430E69BE402E43CCF8206053
:100B8000066855000F790AFA05FC07F0030726EA04
:100B90000C06AF40374307604E68012E05D0022E89
:100BA00003D0112E01D0122E0ED18668CF6826EA0E
:100BB0000C06AF40374387604668A6430C79C4F300
:100BC0000014944034434460C4688E6824EA0C04E2
:100BD000AE402643C6604C68E4006AD5394C2568AF
:100BE00045F480452560246822F0030504F4804420
:100BF0000094354C2E19D6F8084895072F0F09FA9E
:100C000007F5AC43314DA84201D1002529E0304D14
:100C1000A84201D1012524E02E4DA84201D1022590
:100C20001FE02D4DA84201D103251AE02B4DA8420B
:100C300002D1042515E03CE0294DA84201D105254B
:100C40000FE0284DA84201D106250AE0264DA84212
:100C500001D1072505E0254DA84201D1082500E076
:100C60000925BD402543C6F80858DBF800405D461D
:100C70004E689C43F60300D51C432C60DEF8004010
:100C800075464E689C43B60300D51C432C600C4D42
:100C900008352C684E689C43F60200D51C432C6036
:100CA000074D0C352C684E689C43B60200D51C439A
:100CB0002C60521C102AFFF449AFBDE8F88F0000E9
:100CC000003C014044380240003001400000024036
:100CD0000004024000080240000C024000100240E4
:100CE0000014024000180240001C02400020024094
:100CF0000069084000D00120704742694A404261C3
:100D000070470AB1816170470904FBE70148006838
:100D100070470000D800002070B5040004D094F89B
:100D20003D00002510B106E0012070BD84F83C5064
:100D3000204600F0D9F9242084F83D00206801689D
:100D400021F00101016000F037FB33492268B0FB5C
:100D5000F1F15160314A6368934206D94FF49673BA
:100D600059434FF47A73B1FBF3F12368491C1962BC
:100D7000616891420BD84900B0FBF1F2C2F30B025B
:100D8000042A01D2042019E0B0FBF1F016E0A368B8
:100D90009BB301EBC10202EB0112B0FBF2F242F491
:100DA0008042120530D04BB301EBC10202EB0111BE
:100DB000B0FBF1F040F4804040F400402168C8618D
:100DC000D4E90701084321680860D4E90310084307
:100DD00021688860D4E9050108432168C86020685B
:100DE000016841F0010101602564202084F83D0084
:100DF000256384F83E50002070BD00E006E001EB62
:100E00004102B0FBF2F2CCE70120D7E701EB410150
:100E1000B0FBF1F0D0E7000040420F00A0860100D7
:100E20002DE9F84F04460AA8984690E8600294F825
:100E30003D0092468B4620287CD142F2107301225D
:100E40006949204601F028FB0028F5D194F83C00C0
:100E500001286FD0012084F83C002068016821F44B
:100E600000610160222084F83D00402084F83E00AB
:100E7000002727645D48E0624346524659462046B3
:100E8000CDF8009001F04AFA28B1206C84F83C704B
:100E9000042837D072E0BEB1012E1ED0DFF8508199
:100EA0002068022E31D0416980690090032E77D8E6
:100EB000012E1FD0022E35D04B460022414620463F
:100EC00001F0EAFAB8BB47E0206841698169009106
:100ED000016841F4007101607BE02068016821F441
:100EE000806101602068416981690091016841F475
:100EF000007101604946204601F05CFBE0B1206CC6
:100F000020283BD00120BDE8F88F016821F48061E2
:100F100001602068016841F4006101602068416956
:100F2000806900904B4600224146204601F0B4FA09
:100F300008B905E056E021E020680069287048E023
:100F40002068016841F40071016020680069287020
:100F50002068006968703CE02068016821F48061C5
:100F600001602068006905F8010B761EB6B24B4699
:100F700000224146204601F08FFA08B10320C2E763
:100F80002068016841F4007101602068006905F87B
:100F9000010B2068006905F8010BB61E15E0FFE79C
:100FA0004946204601F006FB0028A8D120680069C8
:100FB00005F8010B2068761EB6B24169C94349079E
:100FC00004D4006905F8010B761EB6B2002E7FF43A
:100FD0006DAF202084F83D0084F83E7084F83C70AA
:100FE000002090E702208EE7020010000000FFFFC3
:100FF000040001002DE9F84F0446DDE90A6590F888
:101000003D00DDF83080994692468B46202865D118
:1010100042F2107301223249204601F03DFA0028C5
:101020005CD194F83C00012858D0012084F83C00A1
:101030002068016821F400610160212084F83D00EE
:10104000402084F83E00002727642648E0624B4693
:10105000524659462046CDF8008001F0D1F908B338
:10106000206C84F83C70042836D007E041462046C6
:1010700001F0D4FA28B1206C042828D00320BDE860
:10108000F88F216816F8010B086120686D1EADB25B
:101090004169C943490705D435B116F8011B0161FF
:1010A0006D1EADB2002DE1D14146204601F0B6FAE9
:1010B0000028E0D154F83D0B016841F40071016053
:1010C000202004F81E09E77767770020D7E720681B
:1010D000016841F4007101600120D0E70220CEE7F1
:1010E000020010000000FFFF00B500680E4987B045
:1010F000884216D1C0200090122001900120029059
:10110000032003900420049069460848FFF710FD6F
:101110000748016841F400110160006800F4001004
:10112000059007B000BD00000054004000040240DC
:101130004038024002480168491C016070470000C5
:10114000D80000200B4810B5016841F4007101601F
:10115000016841F480610160016841F480710160BF
:10116000032000F05BF8002000F006F800F015F80E
:10117000002010BD003C024010B5044600F002F90A
:101180004FF47A71B0FBF1F000F02FFE00222146FF
:10119000501E00F023F8002010BD10B5032000F011
:1011A0003DF80022BDE810401146501E00F016B870
:1011B00000F01F02012191404009800000F1E02071
:1011C000C0F88012704700F01F02012191404009D1
:1011D000800000F1E020C0F800117047F0B40E4B21
:1011E0001B680C46C3F30223C3F10705042D00D985
:1011F0000425191D072901D2002300E0DB1E01266A
:1012000006FA05F1491E214099409E40761E16407F
:101210003143F0BC01F0B6BB0CED00E0064900F034
:10122000070208684FF6FF03184040EA0220034A0D
:1012300010430860704700000CED00E00000FA0564
:10124000704700002DE9F047DFF830A105460F4652
:10125000DAF8000000F00F01F8B28146B94208D276
:1012600001468AF80010DAF8000000F00F00B842DA
:101270006AD12878424C800705D52068A96820F0FB
:10128000F000084320602878C0074FD03C496868C8
:101290000839012819D002281AD0032818D0096863
:1012A0008907002950DA216821F0030101432160F8
:1012B000FFF72CFD0646686841F28838012810D0F7
:1012C00002281AD003281ED02CE009688903E8E719
:1012D00009688901E5E700BFFFF718FD811B41455B
:1012E0001DD82068C0F381000128F5D11EE000BFA1
:1012F000FFF70CFD811B414511D82068C0F3810028
:101300000228F5D112E02068FFF700FD801B404560
:10131000F9D904E0FFF7FAFC811B414502D903200B
:10132000BDE8F087206810F00C0FF3D1DAF8001058
:10133000504601F00F01B94208D980F800900068CA
:1013400000F00F00B84201D00120E9E728784007FB
:1013500005D52068E96820F4E0500843206028782B
:10136000000706D52068296920F4604040EAC100E2
:1013700020600020FFF700FF0020D1E7003C024082
:101380000838024010B500F043F808490968F02217
:1013900092FAA2F201F0F001B2FA82F2D140044ACC
:1013A000515CC8400349086010BD00000838024085
:1013B000E6640008DC00002010B5FFF7E3FF0749F2
:1013C00009684FF4E05292FAA2F201F4E051B2FA45
:1013D00082F2D140024A515CC84010BD0838024038
:1013E000E664000810B5FFF7CDFF074909684FF420
:1013F000604292FAA2F201F46041B2FA82F2D14064
:10140000024A515CC84010BD08380240E66400083A
:1014100030B51948006810F00C01184812D044107B
:1014200004290ED008290DD11349091F0A6802F0BA
:101430003F030A68550247F6C07204D5B4FBF3F0C7
:1014400003E0204630BDB0FBF3F00B6809681340A1
:1014500092FAA2F2B2FA82F2D34058434FF44032E9
:1014600092FAA2F201F44031B2FA82F2D140491C60
:101470004900B0FBF1F030BD083802400024F40010
:10148000054810B50068000605D5FFF7D9FE0249EA
:101490008020891C087010BD0C3802402DE9F84FDF
:1014A0000446DFF8CC820078A8F1040BC007ABF14A
:1014B000040537D0D8F800104046C1F38101012956
:1014C00008D00068C0F3810002280AD1DBF80000D0
:1014D000400206D52868800324D56068002878D0AB
:1014E00020E0A3492079891F0870606868B1FFF780
:1014F0000DFC064605E000BFFFF708FC801B6428D2
:1015000068D828688003F7D50CE0FFF7FFFB064694
:1015100005E000BFFFF7FAFB801B6428F0D82868BD
:101520008003F7D42078934E80074FF0010A4FF0E4
:10153000000742D5D8F80010404611F00C0F08D033
:101540000068C0F3810002280AD1DBF800004002E5
:1015500006D42868800714D5E068012839D110E046
:10156000E068D8B1C6F800A0FFF7D0FB814605E0DF
:10157000FFF7CCFBA0EB09000228C1D82868800740
:10158000F6D52868F82292FAA2F22169B2FA82F21C
:1015900020F0F8009140084328600EE03760FFF724
:1015A000B5FB814606E000BFFFF7B0FBA0EB0900EA
:1015B00002280FD828688007F6D42078000728D59D
:1015C0006D486169A1B1C0F800A0FFF79FFB81469B
:1015D00008E0CAE079E000BFFFF798FBA0EB090044
:1015E000022872D862486C3000688007F4D510E099
:1015F0000760FFF78BFB814606E000BFFFF786FB25
:10160000A0EB0900022860D859486C3000688007B8
:10161000F4D42078400749D555483830016841F066
:1016200080510160006800F08050009053480168CC
:1016300041F480710160FFF769FB814606E000BF5D
:10164000FFF764FBA0EB090002283ED84B48006876
:10165000C005F5D5DFF81891207A09F1680989F8F5
:101660000000A06888B1FFF751FB009008E000BFC0
:10167000FFF74CFB0099411A41F2883081426CD847
:10168000D9F800008007F3D510E0FFF73FFB00908A
:1016900008E000BFFFF73AFB0099411A41F2883099
:1016A00081425AD8D9F800008007F3D4A069E0B38A
:1016B000D8F80010C1F38101022956D002283766FC
:1016C00004D0FFF723FB04464AE046E0FFF71EFB89
:1016D000074604E0FFF71AFBC01B02283DD8286824
:1016E0008001F7D4D4E90701084347F6C07292FAA3
:1016F000A2F2616AB2FA82F29140A26A4FF0FF331D
:1017000003EB52024FF4403393FAA3F3B3FA83F39B
:101710009A40114308434FF0706292FAA2F2E16AD4
:10172000B2FA82F29140084300E01CE0CBF80000DE
:10173000C6F860A0FFF7EAFA044604E0FFF7E6FA0D
:10174000001B022809D828688001F7D50BE000BFEC
:10175000FFF7DCFA001B022802D90320BDE8F88F4E
:1017600028688001F4D40020F8E70120F6E70000A3
:101770000838024000004742800E47420070004097
:1017800070B5040004D094F85100002510B106E0B3
:10179000012070BD84F85050204600F037F8022038
:1017A00084F851002068016821F040010160D4E90B
:1017B00001010843D4E90312114308436169084356
:1017C000218B01F400710843E1690843216A084351
:1017D000A16A084321680860A069042101EA104059
:1017E000616A084321684860A06AB0F5005F02D1D1
:1017F0002168E06A08612068C16921F40061C16163
:101800006565012084F85100002070BD00B50068B6
:101810000E4987B0884216D10D480021026842F473
:1018200080520260006800F480500590E020009033
:101830000220CDE9010103200390052004906946B0
:101840000448FFF775F907B000BD00000030014003
:1018500044380240000002402DE9F84F4FF0000AE2
:101860009946044617460D46ADF800A04068564616
:101870004FF0040BB0F5827F01D1A06878B194F8E5
:101880005000012816D0012084F85000FFF73EFADE
:10189000804694F8510001280ED00226D1E084F849
:1018A00051B013460A462046CDF8009000F08FF95B
:1018B000BDE8F88F0220FBE7002D7DD0002F7BD004
:1018C00084F851B0C4F854A0A563A787E787C4F88B
:1018D00030A0A4F834A0A4F836A0C4F840A0C4F8FE
:1018E00044A0A06A4FF40057B8420DD120680168A7
:1018F0004DF6FF72114001602068016841F400510B
:101900000160E08F401EE087A068B0F5004F04D171
:101910002068016821F4804101602068016849065F
:1019200003D4016841F040010160E068B8B131E0E2
:1019300020688168C90706D0007B05F8010BE08F9D
:10194000401EE0870BE0B9F1000F39D0B9F1FF3F3D
:1019500005D0FFF7DBF9A0EB0801494530D2E08F55
:101960000028E5D119E020688168C90706D0C06861
:1019700025F8020BE08F401EE0870BE0B9F1000F65
:101980001ED0B9F1FF3F05D0FFF7C0F9A0EB080169
:10199000494515D2E08F0028E5D1A06AB8422FD181
:1019A0002068016841F48051016001224B461146D4
:1019B0002046CDF8008000E042E001F015F808B1C3
:1019C00003263EE0E068B0F5006F20680FD0007B92
:1019D000287001224B4611462046CDF8008001F0C8
:1019E00003F838B1606D40F002006065E8E7C06858
:1019F0002880EEE72068C068ADF80000BDF8000060
:101A0000204600F0DFFF18B1606D40F020006065F7
:101A100042464946204600F0C5FF20B1606D40F0C7
:101A200020006065012620688168C90606D5616DC1
:101A300041F0020161654FF6EF718160606D00B1A8
:101A40000126012084F8510084F850A030462FE789
:101A50002DE9F84F044690F85000002698461746A6
:101A60000D4601280DD04FF0010A84F850A0FFF771
:101A70004DF9834694F85100B146012804D002265E
:101A80009FE00220BDE8F88F002D71D0002F6FD0AD
:101A9000032084F85100C4F854902563A786E78694
:101AA000C4F83890A4F83C90A4F83E90C4F8449050
:101AB000C4F84090A068B0F5004F04D120680168D8
:101AC00041F480410160A06A4FF40057B8420AD146
:101AD000206801684DF6FF721140016020680168BE
:101AE00041F40051016020680168490603D401688F
:101AF00041F040010160E068B0F5006F17D038E0B8
:101B000020688168890706D535F8021BC160E08E20
:101B1000401EE0860BE0B8F1000F27D0B8F1FF3F80
:101B200005D0FFF7F3F8A0EB0B0141451ED2E08E84
:101B30000028E5D120E02068806880070AD50220CF
:101B400000F0A8FD216815F8010B0873E08E401E17
:101B5000E0860EE0B8F1000F08D0B8F1FF3F08D0E2
:101B6000FFF7D4F8A0EB0B01414502D3032628E090
:101B700026E0E08E0028DED1A06AB84204D12068B9
:101B8000016841F4805101605A464146204600F008
:101B900009FF18B1606D40F020006065A06818B9B9
:101BA0002068C1688068009020688168C90705D0F6
:101BB000C168ADF80010BDF80010F6E7606D00B127
:101BC000012684F851A084F8509030465AE72DE958
:101BD000F84F4FF0000B0A9E984691468A460446FD
:101BE000ADF800B090F850005D4601280ED00120FD
:101BF00084F85000FFF78AF8074694F8510001284E
:101C00000FD06068B0F5827F09D102E00220BDE804
:101C1000F88FA06818B994F85100042801D0022563
:101C2000CFE0BAF1000F0AD0B9F1000F07D0B8F138
:101C3000000F04D094F85100012802D004E00125DF
:101C4000BFE0052084F85100C4F854B0C4F83890BF
:101C5000A4F83E80A4F83C80C4F830A0A4F83680F4
:101C6000A4F83480C4F840B0C4F844B0A06A4FF47B
:101C7000005840450AD1206801684DF6FF721140B6
:101C800001602068016841F400510160206801682A
:101C9000490603D4016841F040010160E068B0F5F5
:101CA000006F29D05AE0A0B120688168890710D55B
:101CB0003AF8021BC160E08E401E0004000CE08672
:101CC00007D1A06A404504D12068016841F48051E1
:101CD0000160E08F48B120688168C90705D0C068FD
:101CE00029F8020BE08F401EE087701C04D0FFF73C
:101CF0000DF8C01BB0422FD2E08E0028D3D1E18F67
:101D00000029D0D130E0A0B120688168890710D5C2
:101D10001AF8011B0173E08E401E0004000CE086DF
:101D200007D1A06A404504D12068016841F4805180
:101D30000160E08F48B120688168C90705D0C0689C
:101D400009F8010BE08F401EE087701C06D0FEF7FB
:101D5000DDFFC01BB04201D3032532E0E08E002836
:101D6000D1D1E18F0029CED1A06A404512D1012204
:101D7000334611462046009700F036FE20B1606DD4
:101D800040F002006065E7E72068C068ADF8000039
:101D9000BDF8000020688168C90607D5616D41F073
:101DA000020161654FF6EF71816001253A463146C7
:101DB000204600F0F7FD20B1606D40F02000606526
:101DC0003DE7012084F8510084F850B028461EE712
:101DD0004FF0E0210428086903D020F004000861D6
:101DE000704740F00400FAE7704710B5401EB0F1AC
:101DF000807F01D3012010BD4FF0E02460610F21EE
:101E0000601700F0BFFD0020A061072020610020C6
:101E100010BD10B5FFF7E8FF10BD704738B5044698
:101E200000680168C26811F0010F02F4807207D0E7
:101E300032B1016841680091E16B41F00101E16359
:101E400001684269C1F3400102F0010239B132B1C7
:101E5000016841680091E16B41F00401E1630168B0
:101E60004269C1F3800102F0010239B132B1016867
:101E700041680091E16B41F00201E1630168426950
:101E8000C1F3C00102F0010239B132B10168416809
:101E90000091E16B41F00801E1630168C068C1F3A2
:101EA000401100F0200019B110B1204600F0A4FE4E
:101EB00021680868C968C0F3C01001F0800118B13A
:101EC00011B1204601F03AF821680868CA68C0F3E9
:101ED000801002F04002202548B142B1CA68204675
:101EE00022F04002CA6084F8395000F001FAE06B39
:101EF000002806D084F8395084F83A502046FFF77D
:101F00008CFF38BD70B5040004D094F8390000256A
:101F100010B106E0012070BD84F83850204600F072
:101F200023F8242084F839002068C16821F4005186
:101F3000C160204600F0ACFE2068016921F49041A8
:101F400001612068416921F02A0141612068C1686E
:101F500041F40051C160E563202084F8390084F821
:101F60003A00002070BD00002DE9F04F04460068E3
:101F70005949002587B04FF0020A4FF0010B4FF08E
:101F800003094FF0006788424ED15448016841F080
:101F9000100101600068694600F0100005904FF4E0
:101FA000C0608DE8010C0720CDE903904C48FEF796
:101FB000BFFD4D4E4B484FF480683060C6E9017557
:101FC000C6E9035880157561C6E90650356230468A
:101FD0007562FEF70DFD18B1772144A001F036F8C7
:101FE0006663B463404E3F4858363030E6E8020737
:101FF0004020A6E821013C4846F814595830B56104
:10200000F56135627562FEF7F3FC18B1892137A0DE
:1020100001F01CF82663002211462520B463FFF767
:10202000DDF82520FFF7CFF836492068884250D1E7
:102030002A48001F016841F40031016000686946C8
:1020400000F4003005900C208DE8010C0720CDE94C
:1020500003902348FEF76CFD234E2B48B0364FF417
:102060008069E6E802074020A6E82102B84646F863
:1020700014598702B561C6E907571B487562B0302D
:10208000FEF7B6FC18B1B72118A000F0DFFF2663F9
:10209000B4631D481D4E18383060C6E90185C6E995
:1020A000035980157561C6E90650C6E908753046C2
:1020B000FEF79EFC18B1C9210CA000F0C7FF6663B3
:1020C000002211462620B463FFF788F82620FFF788
:1020D0007AF807B0BDE8F08F0010014044380240A4
:1020E0000000024088640240984E00202E2E5C5072
:1020F00065726970686572616C5C75736172742E6B
:102100006300000000440040A0600240A04F002097
:1021100070B5044690F83A0020282CD149B342B358
:1021200094F83800012826D0012084F83800A162F4
:10213000A2850025E563222084F83A00636B0F48EE
:10214000D863636B0E481864636B0E489864084646
:102150001346666B216802463046091DFEF784FC73
:102160002068416941F04001416184F83850002005
:1021700070BD012070BD022070BD00008F2B0008D3
:10218000B72B00086D2B00080B4B01210B4A98421E
:1021900000D15170084B403B98420BD1084B188836
:1021A000401C18801170074940F26222A1F5F070BE
:1021B00000F060B870470000584E0020D4000020A6
:1021C00006000020F84F002070472DE9F04104463A
:1021D00090F8390098460D46202849D105B3FAB148
:1021E00094F83800012843D0012084F838000026F4
:1021F000E663212084F83900A284E2844FF48057FA
:10220000E08C4346401EE084A0684FF00002B842D4
:102210004FF08001204611D100F0C1FEF8B902E074
:102220000120BDE8F08128882168C0F308004860DB
:10223000206908B16D1C08E0AD1C06E000F0AFFE9F
:1022400068B9216815F8010B4860E08C0028D7D1E7
:10225000434600224021204600F0A1FE08B10320A1
:10226000DFE7202084F8390084F838600020D8E7C0
:102270000220D6E770B5044690F8390020282ED108
:1022800059B352B394F83800012828D0012084F8BB
:1022900038002162A284E2840025E563212084F8CD
:1022A0003900236B0F48D863236B0F481864236BE6
:1022B0000E48986426681346321D206BFEF7D4FB47
:1022C00021686FF0400008602068416941F080019A
:1022D000416184F83850002070BD012070BD02209B
:1022E00070BD0000C12B0008EF2B00086D2B00080B
:1022F0007047704701684A69D24352050CD46FF4A5
:1023000080624A6104210164002140F8301F2022CC
:102310004273017301207047002070472DE9F84F88
:10232000044600680F46DDF828B001689846164656
:1023300041F4806101602068016841F480710160AE
:102340004FF001195B4600224946204600F0A4F8F0
:10235000F0BB216807F0FE00086109F1010A5A4646
:102360005146204600F0E0F818B1206C042811D046
:1023700036E020684169806900905946204600F0A7
:102380004DF950B1206C04282AD12068016841F42D
:10239000007101600120BDE8F88FF5B2B8F1010FBE
:1023A00008D02168300A08615946204600F036F905
:1023B0000028E7D1206805615946204600F02EF933
:1023C0000028DFD12068016841F48071016000E0DD
:1023D00006E05B4600224946204600F05DF808B161
:1023E0000320D8E72168F8B240F0010008615A469E
:1023F0005146204600F098F80028B6D1CBE70000FF
:102400002DE9F843044600680E46DDF82080016897
:102410001F46154641F480710160434600224FF08B
:102420000111204600F038F8D8B9216806F0FE0006
:10243000086142461749204600F076F828B1206C22
:1024400004280ED10120BDE8F88320684169806925
:1024500000904146204600F0E1F820B1206C0428AD
:1024600011D00320EFE7EEB2012F08D02168280A2F
:1024700008614146204600F0D1F80028EED12068DE
:1024800006610020DFE72068016841F40071016007
:10249000D8E70000020001002DE9F05F1E469046DB
:1024A0000D460446FEF732FC81464FF0000A4FF01D
:1024B000200BC5F30747B8F1000F09D026E0701CC8
:1024C00006D0D6B1FEF722FCA0EB0900B04214D82A
:1024D0002068012F06D0806925EA00000004000C66
:1024E0001DD0ECE74069F7E7701C0FD02EB1FEF766
:1024F0000DFCA0EB0900B04208D944F830AF84F8D5
:102500000DB084F80CA00320BDE8F09F2068012FD7
:1025100007D0806925EA00000004000CE4D0002008
:10252000F2E74069F6E700002DE9F04791460D46D5
:102530000446FEF7EBFB824600264FF02008C5F369
:1025400007472AE020684069C043400512D420684C
:10255000016841F40071016021686FF48060486196
:1025600004202064266384F83D8084F83C600120C8
:10257000BDE8F087B9F1FF3F0FD0B9F1000F05D0EA
:10258000FEF7C4FBA0EB0A01494506D944F8306FB9
:1025900084F80D8026730320EAE72068012F07D016
:1025A000D0F8180025EA00000004000CE0D0C9E7CC
:1025B0004069F7E72DE9F04188460446FEF7A6FB9F
:1025C00000250646202722E04069C043C0060CD4FF
:1025D00021686FF0100048612564256384F83D7020
:1025E00084F83C500120BDE8F081B8F1000F04D020
:1025F000FEF78CFB811B414509D954F8400F40F090
:10260000200044F80409677025700320EBE7206878
:102610004169C9434906D7D40020E4E770B50D46A7
:102620000446FEF773FB06461AE02046FFF762FEFB
:1026300008B1012070BD681C12D025B1FEF766FB01
:10264000801BA8420CD954F8400F40F0200044F8F9
:10265000100900202060202161732073032070BDC9
:1026600020684069C0430006DFD4002070BD000030
:1026700000B585B041F60340009001200190002094
:102680000290039069460248FEF752FA05B000BD79
:10269000000802404FF480610C4B884210D008DCE7
:1026A00001280FD0022810D1012202211846FEF77E
:1026B00028BB4FF40061884202D04900884204D10F
:1026C0000122F3E701221146F0E7704700080240BB
:1026D0004FF480610C4B884210D008DC01280FD0E9
:1026E000022810D1002202211846FEF70ABB4FF43F
:1026F0000061884202D04900884204D10022F3E7F9
:1027000000220121F0E77047000802404FF4806189
:102710000B4A884205D007DC01280DD002280DD1D4
:1027200002211046FEF7E9BA4FF400618842F8D062
:102730004900884202D1F4E70121F2E77047000026
:1027400000080240194808B5016841F480010160A1
:10275000016801F480010091016841F400110160F9
:102760000068002200F40010009011461020FEF7CF
:1027700035FD1020FEF727FD002211461120FEF73F
:102780002DFD1120FEF71FFD002211464420FEF70B
:1027900025FD4420FEF717FD002211464620FEF7D6
:1027A0001DFDBDE808404620FEF70DBD3038024053
:1027B000F0B5304887B00025016841F08001016024
:1027C000016801F080010591016841F0010101609B
:1027D000016801F001010591016841F00201016009
:1027E000016801F002010591016841F004010160F6
:1027F0000068012400F00400009405901E4E0220A1
:10280000CDE901601D4F69463846FEF791F9600237
:10281000CDE90006694602943846FEF789F94FF47F
:10282000E0560096CDE901450395154D69462846C9
:10283000FEF77EF91020CDE900040320CDE9024027
:10284000104C69462046FEF773F9002231462846AF
:10285000FEF757FA012210212046FEF752FA002215
:1028600011461720FEF7BAFC1720FEF7ACFC07B0A4
:10287000F0BD00003038024000001110000402409A
:102880000008024000000240094808494FF4804215
:10289000016049F64041416000218160C0E90312B6
:1028A00041618161C1610162FEF736BA00540040A6
:1028B0007C4D00200C480B494FF4007201604FF42E
:1028C0008271416000218160C1600161C0E905122F
:1028D0002022C0E90721416281620A21C162FEF71C
:1028E0004FBF000000300140C04D00200F4810B520
:1028F0000D4901604FF48271416000218160C16027
:102900004FF400720161C0E905121022C0E90721ED
:10291000416281620A21C162FEF732FFBDE81040C8
:102920004FF4FA70FEF7C7B800300140C04D0020E8
:102930000848074901604FF4E1314160002181609E
:102940000C22C160C0E904128161C161FFF7DABAEB
:1029500000100140584E00200848074901604FF41C
:10296000E1314160002181600C22C160C0E90412A4
:102970008161C161FFF7C6BA00440040184E0020D3
:10298000FEF77EBD0907090E002806DA00F00F00E9
:1029900000F1E02080F8141D704700F1E02080F87D
:1029A0000014704738B50B4600920446002280217F
:1029B00000F01AF8002804D0606D40F02000606537
:1029C000032038BD4168B1F5827F0BD18168B1F534
:1029D000004F02D0B1F5806F04D10068016821F08A
:1029E00040010160002070472DE9F0411D46164668
:1029F0000F460446DDF8188035E0681C33D02DB151
:102A0000FEF784F9A0EB0800A8422CD320684168A7
:102A100021F0E00141606068B0F5827F0BD1A068D1
:102A2000B0F5004F02D0B0F5806F04D12068016886
:102A300021F040010160A06AB0F5005F0AD1206872
:102A400001684DF6FF72114001602068016841F491
:102A500000510160012084F85100002084F85000EA
:102A60000320BDE8F081206880683840B042C4D1BE
:102A70000020F6E710B5FEF75DFBBDE81040FFF75C
:102A8000C8B9000030B5224893B00025016841F074
:102A900080510160006800F0805011901D4801686D
:102AA00041F4804101600068022400F480401190EC
:102AB0000120039010200490009406940820CDE992
:102AC0000750A820CDE9090404200B906846FEF7C2
:102AD000E5FC0CA90F2081E831004FF4A0500F90C5
:102AE000E002109005210CA8FEF7ACFBFEF74AFCB3
:102AF0004FF47A71B0FBF1F0FFF777F90420FFF79C
:102B000067F900221146501EFEF768FB13B030BD76
:102B100040380240007000401048016841F47001E4
:102B200001600F48016841F0010101600C4A002179
:102B30000832116002680B4B1A400260031D0A4AFA
:102B40001A60026822F48022026005480C3001609D
:102B500002495806803908607047000088ED00E09F
:102B600000380240FFFFF6FE1030002410B5806BE5
:102B70000021C185C184202180F8391080F83A10E5
:102B8000C16B41F01001C163FFF747F910BD10B5EB
:102B90000146806B09680968C90509D40021C1850F
:102BA00001684A6922F040024A61202180F83A1007
:102BB000FFF7EAFA10BD10B5806BFFF705FB10BDFB
:102BC00010B50146806B09680968C9050CD400215D
:102BD000C18401684A6922F080024A610068C168C4
:102BE00041F04001C16010BDFFF782FB10BD10B580
:102BF000806BFFF77EFB10BD10B590F83A102229CC
:102C000001D0022010BD8168B1F5805F11D001694B
:102C1000002901681FD0496801F07F03816A4A1CBE
:102C200082620B70C18D491E0904090CC18518D040
:102C30002BE00269816A002A0268526805D0D2B28C
:102C40000A80816A491C8162ECE7C2F308020A80AB
:102C5000816A891CF7E74A68816A4B1C83620A70A3
:102C6000E0E70168CA6822F02002CA600168CA6809
:102C700022F48072CA6001684A6922F001024A6146
:102C8000202180F83A10FFF77FFA002010BD0000E5
:102C90002DE9F04104460068016921F44052E168E1
:102CA000114301612168C86849F20C6290432369AD
:102CB000A268E5691A4363692B431A430243CA6059
:102CC0002168486920F44072A06910434861E169B5
:102CD0006425B1F5004F9748974A21684FF03208B4
:102CE0003FD0914201D081427CD1FEF77BFB00EBCB
:102CF000C00101EB001061688900B0FBF1F6FEF73E
:102D000071FB00EBC00101EB001061688900B0FBB2
:102D1000F1F0B0FBF5F06FF01801484306EB8001CD
:102D200008EB0110B0FBF5F000F0F006FEF75AFBDF
:102D300000EBC00101EB001061688900B0FBF1F00D
:102D4000B0FBF5F006EB0016FEF74CFB00EBC00104
:102D500001EB001061688900B0FBF1F7FEF742FB60
:102D6000D2E0914201D081423DD1FEF73BFB00EB26
:102D7000C00101EB001061684900B0FBF1F0B0FB4D
:102D8000F5F00601FEF72EFB00EBC00101EB001091
:102D900061684900B0FBF1F7FEF724FB00EBC001CE
:102DA00001EB001061684900B0FBF1F0B0FBF5F0F9
:102DB0006FF01801484307EB800108EBC100B0FB3E
:102DC000F5F000F0F80006EB4006FEF70BFB00EB19
:102DD000C00101EB001061684900B0FBF1F7FEF79C
:102DE00001FB3CE055E0FEF7E7FA00EBC00101EB28
:102DF000001061684900B0FBF1F0B0FBF5F006018E
:102E0000FEF7DAFA00EBC00101EB0010616849003F
:102E1000B0FBF1F7FEF7D0FA00EBC00101EB0010B8
:102E200061684900B0FBF1F0B0FBF5F06FF01801FC
:102E3000484307EB800108EBC100B0FBF5F000F060
:102E4000F80006EB4006FEF7B7FA00EBC00101EB15
:102E5000001061684900B0FBF1F7FEF7ADFA00EB36
:102E6000C00101EB001061684900B0FBF1F0B0FB5C
:102E7000F5F06FF01801484307EB800108EBC10043
:102E8000B0FBF5F000F00700216830448860BDE831
:102E9000F081FEF791FA00EBC00101EB00106168D0
:102EA0008900B0FBF1F6FEF787FA00EBC00101EBF9
:102EB000001061688900B0FBF1F0B0FBF5F06FF035
:102EC0001801484306EB800108EB0110B0FBF5F058
:102ED00000F0F006FEF770FA00EBC00101EB001005
:102EE00061688900B0FBF1F0B0FBF5F006EB00166D
:102EF000FEF762FA00EBC00101EB00106168890087
:102F0000B0FBF1F7FEF758FA00EBC00101EB00103F
:102F100061688900B0FBF1F0B0FBF5F06FF01801CB
:102F2000484307EB800108EB0110B0FBF5F000F01F
:102F30000F00A9E7001401400010014090F839107B
:102F4000212901D0022070478168B1F5805F016AB4
:102F50000BD04A1C0262026809785160C18C491E7C
:102F60000904090CC1840ED017E009880268C1F376
:102F70000801516001690029016A02D0491C0162FF
:102F8000ECE7891CFBE70168CA6822F08002CA608E
:102F90000068C16841F04001C160002070472DE920
:102FA000F0471D4690460E460446FDF7AFFE074625
:102FB0005FEA08004FF000094FF0200808D032E027
:102FC000681C05D095B1FDF7A1FEC01BA8420DD825
:102FD0002068006836EA0000F2D129E0681C22D09F
:102FE00025B1FDF793FEC01BA8421CD92068C1681B
:102FF00021F08001C1602068C16821F02001C1601A
:103000002068C16821F48071C1602068416921F0A5
:103010000101416184F8398084F83A8084F838905D
:103020000320BDE8F0872068006836EA0000D5D0AC
:103030000020F6E70148FEF7F1BE0000584E0020E0
:103040000148FEF7EBBE0000184E0020FEE700002E
:103050000FB4054B10B503A9044A029800F008F913
:1030600010BC5DF814FB000049500008E00000208F
:103070000FB4084B10B504A902AA039800F0F8F8A1
:10308000044602A9002000F024FB204610BC5DF895
:1030900014FB0000D336000810EE100A10B5A0F59E
:1030A00000014FF0000CB1F1FE4F6CD200F5002191
:1030B0006FF07E0202EBE153C1F302524FF07E51FA
:1030C00001EB025100EE901AA0EBC3500CEB030190
:1030D00000EE100A51EA020036D030EE601A30EEEF
:1030E000200AC1EE000A20EEA00A60EE801A9FEDD1
:1030F0003D2A9FED3D1A3D48DFED3F2A00EE021AC2
:10310000784400EB82009FED3A2A21EE810A01EE1D
:10311000101AD0ED001A3748B8EEC11A784400EB07
:10312000820041EE021A01EE101A90ED002AB8EE6C
:10313000C11A01EE222A9FED311A32EE000A00EE8A
:10314000810A31EE800A10BDF7EE000A9FED2D1ABC
:1031500070EE600A9FED2A0A00EE801A9FED2A0A9F
:1031600060EEA01A00EE810A9FED281A00EE801A88
:1031700021EE810A9FED261A00EE810AB5EE0B1AA8
:1031800000EE810A10BD4FF07F41B1EB400F03D23A
:10319000BDE8104000F04AB8B0F1FF4F08BF10BDC5
:1031A000B5EEC00AF1EE10FA06D2012000F05AF88E
:1031B000BDE8104000F03EB8B5EEC00AF1EE10FADE
:1031C00007D1022000F04EF800F026F8B1EE400AD8
:1031D00010BDDFED100A6FF0160C20EE200A10EE85
:1031E000100A63E7DE02323E3B3D943EFC330000B2
:1031F00000209A3E00340000FC849A36D95B5E3F82
:10320000924FA93D7279DEBD2D3E143ED85B5EBE65
:10321000157B4B3C0000004BDFED030AB7EE001AB4
:1032200081EE200A704700000000000030EE000A26
:1032300070470000DFED020A80EEA00A7047000030
:103240000000000002E008C8121F08C1002AFAD1DD
:1032500070477047002001E001C1121F002AFBD116
:10326000704700000149086070470000E40000203A
:103270002DE9FF4F8DB00F460546002606E02528B4
:103280000BD0DDE90F1290476D1C761C28780028C2
:10329000F5D111B03046BDE8F08F0024A246A1461A
:1032A0000122EC4900E0044315F8013F203B02FAFB
:1032B00003F00842F7D128782A2810D06FF02F02A7
:1032C0002878A0F13001092914D80AEB8A0102EB11
:1032D000410144F0020400EB010A6D1CF0E701CF4C
:1032E0005FEA000A03D544F40054CAF1000A44F02E
:1032F00002046D1C28782E2817D115F8010F44F010
:1033000004042A280ED06FF02F022878A0F1300193
:1033100009290AD809EB890102EB410100EB0109F7
:103320006D1CF2E757F8049B6D1C28786C280FD0B1
:1033300006DC4C2817D068280DD06A2814D104E088
:10334000742810D07A280FD10DE044F400140AE05C
:1033500044F4801401E044F440146978814202D1BD
:1033600004F580146D1C6D1C2A786E2A1FD00CDCAD
:10337000632A31D004DC002A8BD0582A11D1A3E073
:10338000642A68D0692A0CD165E0732A2ED004DC47
:103390006F2A73D0702A04D19BE0752A6FD0782AE7
:1033A0006ED01046DDE90F129047761C50E1C4F351
:1033B0000250022806D0032809D0042801CF09D0E2
:1033C000066045E101CFF117C0E9006140E101CF9E
:1033D00006803DE106703BE117F8040B8DF8000014
:1033E00000208DF80100EB46012003E057F804BBF4
:1033F0004FF0FF3061074FF0000102D40DE008F1FB
:103400000101884649450FDA8045F8DB1BF80810B2
:103410000029F4D108E008F1010188468142FADB75
:103420001BF808100029F6D1DDE90F23AAEB0800EC
:103430008146214600F036F9304400EB080604E0EE
:10344000DDE90F121BF8010B9047B8F10108F7D224
:1034500021464846F7E00A21C4F302534FF0000B1F
:103460000891022B04D001CFC117032B09D00AE029
:10347000FF1D27F00707F7E8020108E032E01FE030
:1034800020E000B2C117042B01D140B2C117031EC6
:1034900071F1000307DA4FF0000CD0EB0C006CEB7D
:1034A00001012D2302E0230504D52B238DF82430C0
:1034B000012303E0E30701D02023F7E7984658E013
:1034C0000A2110E010210EE010204FF0000B0890B0
:1034D0000CE010214FF0000B44F004044FF00809F9
:1034E000089103E008214FF0000B0891C4F3025348
:1034F000022B04D001CF0021032B06D006E0FF1DD4
:1035000027F00707F7E8020103E080B2042B00D19F
:10351000C0B24FF0000823072BD5702A07D0DDF882
:1035200020C08CF0100C5CEA0B0C05D00EE04023A0
:103530008DF82430012308E050EA010306D030233F
:103540008DF824308DF8252002239846DDF820C020
:103550008CF0080C5CEA0B0C0BD150EA010301D192
:10356000630706D530238DF824304FF00108A9F108
:103570000109582A04D038A20B9208AA0A920BE03B
:103580003AA2F9E75B46089AFDF748F80B9B9B5C6B
:103590000A9A521E0A92137050EA0102F2D10A9856
:1035A000ADEB000000F1200B600702D524F480345D
:1035B00001E04FF00109D94502DDA9EB0B0000E065
:1035C000002000EB0B0141440890AAEB010AE00344
:1035D00006D4DDE90F232146504600F063F8064487
:1035E0004FF0000908E009A911F80900DDE90F1200
:1035F000904709F10109761CC145F4DBE0030CD5C5
:10360000DDE90F232146504600F04CF8064404E063
:10361000DDE90F1230209047761C0899481E08906B
:103620000029F5DC08E00A980A990078491C0A91FB
:10363000DDE90F129047761CBBF10001ABF1010BE5
:10364000F1DC21465046DDE90F2300F019F806446D
:103650006D1C1BE609280100303132333435363712
:1036600038396162636465660000000030313233CE
:10367000343536373839414243444546000000006E
:103680002DE9F041044600251E461746880404D45F
:1036900005E039462020B0476D1C641EF9D5284648
:1036A000BDE8F0812DE9F041044600251E46904614
:1036B000C80301D5302700E02027880404D505E0A1
:1036C00041463846B0476D1C641EF9D52846BDE812
:1036D000F0810A68531C0B601070704710B5012808
:1036E0002DED028B20D09FED138ADFED138A00BFF2
:1036F00020EEA01AC0EE010AB0EE600AFFF7CCFC83
:10370000F2EE040A0D4910EE208AB0EE480A10EEDF
:10371000100A884205D2DFED0A0A70EE200A00EE98
:10372000A80ABDEC028B10BD9FED068ADFED068A6C
:10373000DEE70000E17AF3426D56953F0000B0C22B
:103740000000B042A470E7426D56154010B50C461B
:103750000146064802F0FEFD002804DB03490A6822
:10376000411C515C2170C017401C10BDBC000020E2
:1037700010B502F05FFA002815D00D490B484860DB
:10378000401D086000F0A8F908B10AA007E016A0E3
:10379000FFF75EFC02F040FE002806D11EA0BDE847
:1037A0001040FFF755BC29A0F9E710BD604D00207F
:1037B000BC000020434F4E464947093A204545503A
:1037C000524F4D20636F6E66696775726174696FE1
:1037D0006E207265616420616E6420766572696630
:1037E0006965640D0A000000434F4E464947093A97
:1037F0002057726974696E672064656661756C74C0
:1038000020454550524F4D20636F6E666967757253
:103810006174696F6E0D0A00434F4E464947093A7D
:10382000204572726F72207768656E2077726974B6
:10383000696E672064656661756C7420636F6E667F
:10384000696775726174696F6E0D0A00434F4E4669
:103850004947093A20436F756C64206E6F7420727B
:1038600065616420646174612066726F6D204545F6
:1038700050524F4D0D0A000010B50C460146064847
:1038800002F068FD002804DB03490A68811C515CD2
:103890002170C017401C10BDBC00002070B50D4643
:1038A00001461646074802F055FD040007D40548B6
:1038B00032460168A01C01442846FCF781FCE01751
:1038C000401C70BDBC00002038B500208DF8000001
:1038D0000122694601F0A4FB04460A20FDF7EBF83B
:1038E000204638BD70B50C4605460146144802F026
:1038F00031FD134A002803DB1168801C0C5411E0D1
:103900000F481368416831F8030F1D540D88136880
:1039100001202B44587010680A881044847008886D
:10392000C01C088002F05EFD19220649002001F04B
:1039300077FB0A20FDF7BFF802F07CF9012070BD8B
:10394000BC000020604D00202DE9F0410F460546E7
:1039500001461446184802F0FDFC002803DB17A0BE
:10396000FFF776FB18E0144806460268716831F8E4
:10397000033FD5540B8802681A44547000680988C4
:10398000224608443946801CFCF71AFC7068A41CC7
:1039900030F8031F2144018002F024FD192211494F
:1039A000002001F03DFB0A20FDF785F802F042F906
:1039B0000120BDE8F0810000BC0000205769746957
:1039C0006E6720746865206C697374206973206E5B
:1039D0006F7420737570706F7274656421210D0AA5
:1039E00000000000604D002070B50D4D04460246F9
:1039F00029780CA0FFF72CFB21460020FFF772FF6F
:103A000029460020FFF738FF28B12978BDE870402B
:103A10000FA0FFF71DBBBDE8704013A0FFF718BB58
:103A20002A0000205570646174696E6720616464C7
:103A3000726573732066726F6D203078253032584E
:103A400020746F203078253032580D0A00000000B5
:103A500044657669636520616464726573733A20B6
:103A6000307825580D0A0000446576696365206149
:103A70006464726573733A204E6F7420666F756E5E
:103A800064210D0A0000000010B5044607A0FFF7EE
:103A9000DFFA02F09DF821460120FFF723FF09A07D
:103AA000FFF7D6FABDE8104002F092B85072657682
:103AB000696F757320646576696365206D6F6465F1
:103AC0003A2000004E657720646576696365206D55
:103AD0006F64653A200000002DE9F041134800258D
:103AE00044682078BC2805D011A0FFF7B1FA002067
:103AF000BDE8F08134F8030F164F801D38440022D2
:103B000010F8011C208801261346401D03E0FC5CD0
:103B10005B1C2244D2B29842F9DC8A4201D1304681
:103B2000E6E70D48FFF794FA2846E1E7BC000020DD
:103B3000434F4E464947093A20454550524F4D2084
:103B40006D61676963206E6F7420666F756E6421A6
:103B50000D0A0000604D0020406500080846FCF793
:103B6000AABF704741647047016470473EB5044680
:103B700000200190029001230D22052101A802F0EE
:103B80005BFB01230A22052101A802F055FB01235A
:103B90001222052101A802F04FFB01230C2205216E
:103BA00001A802F049FB01230F22052101A802F020
:103BB00043FB01230E22052101A802F03DFB012356
:103BC0001022052101A802F037FB01231122052153
:103BD00001A802F031FB0520009001AB00220F216B
:103BE000204600F0D1FD3EBD3EB5044600200190C8
:103BF000029001230A22052101A802F01DFB0520E5
:103C0000009001AB00220F21204600F0BDFD3EBD1B
:103C10003EB50446002001900290012304220521B4
:103C200001A802F009FB05220123114601A802F0B8
:103C300003FB01230622052101A802F0FDFA01235E
:103C40000722052101A802F0F7FA0520009001AB38
:103C500000220F21204600F097FD3EBDF8B5054635
:103C600001F09DF9284601F0A4F9284601F08DF9EC
:103C7000284601F0B1F9284601F0A4F9284600F0E1
:103C800021FE022405F138031E4600221821284691
:103C9000009400F079FD334641F604022E212846B7
:103CA000009400F071FDF8BD38B50446002100F025
:103CB00013F920680521C2682046904720680169F1
:103CC000204609B1884701E000F0F8FC204600F0EA
:103CD00094F92149884201D0012038BD04F10D003A
:103CE000FF2204210546FCF77DFA042000902B46B4
:103CF00000220321204600F047FD0025C4F81150A2
:103D00002946204600F074FC0121204600F089FC81
:103D1000204601F04EF9C4F81550204601F052F942
:103D20000121204600F0D8F820680521C26820460D
:103D30009047204600F0C8FA20680521C268204656
:103D400090470221204600F0C7F820680521C2688C
:103D500020469047002038BD3001CADE70B50D46C0
:103D6000044600F04FF9DFED3E0A30EE200AFEEE89
:103D7000000A20EE200A10EE100A6FEAD05010F070
:103D8000FF0F6CD0FDEEC00A10EE902A531C002AE3
:103D900002DA0022134603E0112B01DD1122134643
:103DA000002194F82D600846042E08D0072E06D076
:103DB00094F82940012C19D0022C20D02BE094F843
:103DC0002940012C02D0022C0AD024E0254809E029
:103DD00049424900805C072A00DA404240001AE06C
:103DE00020481230072BC15CF2DBF2E71D48243873
:103DF0000A2BC15C00DA49420A2A08DB0AE01948AA
:103E00001238082BC15C00DA4942082A02DA805CC9
:103E1000404200E0805C00EE902A091AD5E90032A9
:103E2000F8EEE00A70EE600A00EE101AB8EEC01A62
:103E300000EE100AB8EEC00A00EE810ADFED0A0AB1
:103E400020EE200ADFED090A20EE200ABDEEC00AAE
:103E500010EE100AC11718184A41C5E9000270BDDA
:103E600000007442BF640008B32355436F12833AC5
:103E700070B504460022262100F07EFC20F47F501D
:103E800040F4AA5300222621204600F0A2FC002282
:103E90003621204600F070FC40F404030022362155
:103EA000204600F096FC4FF488752B4628223621D8
:103EB000204600F08EFC074B28223621204600F0D9
:103EC00088FC2B462046BDE870402822362100F0B1
:103ED00080BC000010010F002DE9FC4100260427E2
:103EE000CDE900760C46054601AB3246362100F09E
:103EF00017FC24B1012C10D0022C1AD026E028681F
:103F000000218268284690478DF804609DF80500DE
:103F100000F0FE008DF8050018E028680021826896
:103F2000284690479DF8040000F0FC0040F0010096
:103F30000AE0286801218268284690479DF804001D
:103F400000F0FC0040F002008DF804000120009019
:103F500001AB00223621284600F016FC01AB0022FE
:103F600036212846009700F00FFCBDE8FC8170B5B3
:103F70000C460546097800F09BFA6178284600F067
:103F800086FBA178284600F061FB0521284600F059
:103F900055FA6078012805D00A212846BDE870400E
:103FA00000F045BB0421F8E708B5002A05D00B4610
:103FB00000920022112100F0B3FB08BD1CB504469D
:103FC0000020217B022902D0012902D00DE0608C63
:103FD00009E00420009001AB00221021204600F0EF
:103FE0009FFBBDF80400C0F3090094F82F100029CE
:103FF00002D0022800D9801E1CBD0022114600F00C
:10400000BBBB000010B504462DED028B0622122129
:1040100000F0A9FB00EE100A2046B8EE408A02F03C
:104020004DF9F0EE400A9FED060A94F8290028EEBB
:10403000000ABDEC028BBDE81040FFF74FBB00004B
:104040000000004838B50C4605460020C4E90000D1
:1040500005200090234600221521284600F060FB31
:1040600021462846BDE83840FFF778BE08B505224E
:104070000B4600920022172100F052FB08BD000001
:1040800070B5044600F0C3F9204600F0CDF8264D87
:1040900010B1286800B18047204600F010F938B10F
:1040A000206C28B12046FFF7B3FD216C20468847DD
:1040B000204600F0FFF830B1686820B12046FFF7D5
:1040C00093FD68688047204600F0CBF830B1E06C83
:1040D00020B12046FFF74AFDE16C09E0204600F0E0
:1040E000E4F898B1A06C88B12046FFF73FFDA16CC1
:1040F0002046884794F83000002814D0204600F06D
:1041000036F92046BDE8704000F06CBB204600F058
:104110009EF8002807D0606C002804D02046FFF7E6
:1041200025FD616CE4E770BDC400002008B50021E6
:104130008160027A00F1080342F0400202720173CA
:104140000421009100220D2100F01EFB08BD00009B
:1041500010B50446002002C4082144F80D0B0222C9
:10416000A075E1750121217662760522A2760423ED
:10417000E37622776077A17704F81F0F890304F8AC
:10418000240C04F10800303C02F020F902482064BD
:104190006064E06410BD0000633B00080B4603222E
:1041A0000421153002F048B870B50C460B461530A6
:1041B00012220521054602F03FF823460F22052171
:1041C000284602F039F823460C220521284602F041
:1041D00033F823462846BDE870401022052102F03E
:1041E0002BB80B4611220421153002F025B80B46DE
:1041F0000A220421153002F01FB870B50C460B4698
:1042000015300D220421054602F016F823462846F3
:10421000BDE870400E22042102F00EB80B460722C2
:104220000421153002F008B870B51D30192205219F
:10423000054600F017FF044618220521284600F025
:1042400011FF044301D0012070BD002070BD90F823
:104250002F101D3009B10E2200E00D22052100F0C3
:1042600001BF2DE9F0411D3012220521064600F064
:10427000F9FE07460F220521304600F0F3FE054601
:104280000C220521304600F0EDFE044610220521E7
:10429000304600F0E7FE47EA05022243024302D01F
:1042A0000120BDE8F0810020FBE7112205211D302F
:1042B00000F0D8BE0A2205211D3000F0D3BE07222F
:1042C00005211D3000F0CEBEFEB5002404250746B2
:1042D000019401AB224636210095029400F020FAA9
:1042E000022602AB06222D213846009600F018FA6D
:1042F00001208DF8040003208DF805008DF808409A
:1043000080208DF8090001AB002236213846009547
:1043100000F03AFA02AB06222D213846009600F052
:1043200033FA38680521C268384690478DF8044052
:104330008DF8056001AB002236213846009500F06B
:1043400023FAFEBD10B50446FFF7F0FE204600F04C
:1043500041F8204600F048F8204600F031F82046A9
:1043600000F05FF82046BDE8104000F046B810B5F8
:104370000446FFF7DBFE0020A0602046FFF7F6FBB7
:104380000120207310BD10B50446FFF7CFFE0020BA
:10439000A0602046FFF73CFC0220207310BD000007
:1043A000064910B50860002211460620FCF716FFEA
:1043B000BDE810400620FCF706BF0000B800002052
:1043C00008B50421009100F1190300221F2100F01B
:1043D000A7F908BD08B50421009100F10D030022E2
:1043E000032100F09DF908BD08B5042100F1110377
:1043F0000022009100F094F908BD08B50421009155
:1044000000F1150300220E2100F08AF908BD08B55D
:104410000521009100F11D0300220F2100F080F919
:1044200008BD08B50521009100F1220300220821F2
:1044300000F076F908BDC0E90E23704701F00F01C6
:1044400041EA0112427680F82D10704738B50546D2
:1044500090F82F00144600B1941CB4F5806F04D37B
:10446000BDE838400CA0FEF7F3BD7F2C03D995F8CA
:10447000270000280FD00B4600220921284600946F
:1044800000F082F905F8224FC4F30121687800F0AA
:10449000E0000843687038BD4672616D654C656E1A
:1044A000677468203E20313032330D0A000000006E
:1044B0007CB5044690F8230011F0030500F083005A
:1044C00040EA451084F8230004F1110004F11906B4
:1044D00007D000231622042101F0AEFE022D2AD0BF
:1044E00004E001231622042101F0A6FE012311227B
:1044F0000421304601F0A0FE01231422042130469D
:1045000001F09AFE012315220421304601F094FEA9
:10451000022D22D0012D22D05FF040008DF8040042
:104520000120009001AB00222121204600F02CF94F
:1045300084F82A507CBD002311220421304601F06A
:104540007BFE002314220421304601F075FE002377
:1045500015220421304601F06FFE0820DEE710200E
:10456000DCE7000010B50446007B02283CD001289F
:104570003AD0002838D10121204600F0E9FC012181
:10458000204600F0F1FC012084F82F000021204695
:1045900000F035F80021204600F037F800212046D1
:1045A00000F039F801212046FFF738FE01212046AE
:1045B000FFF723FE01212046FFF713FE00212046CE
:1045C000FFF7F2FD00212046FFF711FE00212046F3
:1045D000FFF7E4FD0121204600F06AF82046BDE81F
:1045E00010400249FFF7C3BC10BD000098640008EA
:1045F00081F001030C220421113001F01DBE0B4695
:1046000000220421113001F017BE0B4603220421C1
:10461000113001F011BE0B4606220421113001F0C9
:104620000BBE0B4609220421113001F005BEC27EEB
:1046300001F01F0102F03F0242EA8112C2768A08AD
:1046400042EAC102027780F82C10704790F82420CB
:1046500001F00F0102F0C30242EA810280F8242037
:1046600001290ED005290CD009290CD00D290AD01A
:1046700002290AD05FF0400280F8282080F82B1031
:1046800070470822F8E71022F6E72022F4E710F836
:10469000242F01F0030102F0FC020A4300F809296B
:1046A000027802F0F30242EA8102027081737047DD
:1046B0000B461D220421113001F0BEBD7CB504243F
:1046C000054601AB00223621009400F029F80120B4
:1046D0008DF8040001AB002236212846009400F03A
:1046E00053F800268DF8076001AB32463621284684
:1046F000009400F049F828680A21C26828469047CB
:104700008DF80460F0208DF8070001AB00223621FF
:104710002846009400F038F82846FFF707FD7CBDD6
:104720007CB5140001F03F01069E4FF001028DF8A8
:10473000041012D041F040018DF8041004F07F0500
:104740008DF80550E1094FF0020206D045F08002D5
:104750008DF805208DF806100322009601680C687C
:1047600001A9A0477CBD1CB50223009301ABFFF754
:10477000D7FFBDF804001CBD1CB50423009301AB9A
:10478000FFF7CEFF01981CBD7CB501F03F0114007E
:1047900041F08001069E4FF001028DF8041012D006
:1047A00041F040018DF8041004F07F058DF80550AC
:1047B000E1094FF0020206D045F080028DF8052095
:1047C0008DF806100322009601684C6801A9A047E5
:1047D0007CBD0FB581B00423009304ABFFF7D4FF79
:1047E00005B000BD38B5044690F82F00B0B10023E5
:1047F00004F1080000220421054601F01DFD0123FB
:1048000008220421284601F017FD042000902B46C1
:1048100000220D212046FFF7B7FF38BD0123E7E74F
:1048200038B5044600F0D8FB94F82F0008B30023F5
:1048300004F1080000220421054601F0FDFC0123DB
:104840001A460421284601F0F7FC042000902B466C
:1048500000220D212046FFF797FF94F83020002119
:10486000012042B1A16020732046BDE83840FFF727
:10487000B9BF0123DCE794F831200AB1207338BDB9
:10488000217338BD18B1012803D003A0704706A0DA
:10489000704708A070470000556B6E6F776E2065FB
:1048A00072726F72000000004E6F206572726F723C
:1048B0000000000057726F6E6720636869702049BE
:1048C00044000000F0B5044690F8290093B0012898
:1048D00002D0022804D009E0022248F6700102E06A
:1048E000022248F69B010AA801F070FD0422F64955
:1048F0000FA801F06BFD0222352110A801F066FD22
:1049000094F82A0020B1012805D0022806D00AE038
:104910000222162104E00222062101E002220121E6
:1049200008A801F053FD94F82900012802D00228BC
:1049300003D007E00222872101E002228D210BA88B
:1049400001F044FD94F82B0006280CD00A280AD068
:10495000032808D0012894F82A000DD0012808D097
:10496000022806D00FE094F82A0060B902226421E0
:1049700006E00222202103E0022804D102221021B5
:1049800009A801F023FD94F82800082806D0102873
:1049900011D020281CD0402827D035E094F82900D9
:1049A000012802D0022803D02EE00422C74928E0C3
:1049B0000422C74925E094F82900012802D00228E2
:1049C00003D021E00422C3491BE00422C24918E0BD
:1049D00094F82900012802D0022803D014E0042210
:1049E000BE490EE00422BE490BE094F829000128DC
:1049F00002D0022803D007E00422BA4901E0BA49F4
:104A0000042203A801F0E2FC94F82B004FF002020C
:104A100001280CD028210CA801F0D8FC94F82D0016
:104A2000042806D0072804D00122D82103E0102151
:104A3000F1E70122BC210EA801F0C8FC94F82D007A
:104A400001280AD002280CD003280DD004280ED04B
:104A5000052810D0072811D069E0042245F640410E
:104A60000EE00422A1490BE00422A14908E09F497D
:104A70000422203904E004229E4901E09E490422D8
:104A800004A801F0A3FC94F82D0001280AD0022804
:104A90000BD003280CD004280DD005280ED00728F1
:104AA0000FD044E00122C9210DE00122C2210AE019
:104AB0000122C52107E00122952104E00122C02145
:104AC00001E00122932105A801F080FC94F82D005B
:104AD00001280AD0022810D004280ED0032814D0B0
:104AE00005281AD0072818D021E00422834906A8F7
:104AF00001F06CFC01221E2116E00422804906A868
:104B000001F064FC012226210EE004227D4906A862
:104B100001F05CFC01225E2106E004227A4906A82D
:104B200001F054FC0122A62107A801F04FFC01224C
:104B30000D2111A801F04AFC94F82900012802D0A7
:104B4000022804D009E0022241F2076102E00222B9
:104B500040F207610DA801F039FC94F82C000128FF
:104B60001ED002281CD0032825D0082823D00428D2
:104B70002CD0052835D006283ED0072847D0092854
:104B80004FD00A2858D0112856D00B285FD00C28B7
:104B900068D0122873D0132871D014287AD083E0FB
:104BA00094F82A004FF0020210B145F6981178E00F
:104BB00040F6333175E094F82A004FF0020210B14C
:104BC00045F2EA116DE040F63D216AE094F82A00D2
:104BD0004FF0020210B144F28E2162E040F6510122
:104BE0005FE094F82A004FF0020210B144F21E5127
:104BF00057E040F6A30154E094F82A004FF0020277
:104C000010B142F614614CE040F2C25149E094F810
:104C10002A004FF0020208B1910342E04FF48051A4
:104C20003FE094F82A004FF0020210B142F6F4017E
:104C300037E040F21E5134E094F82A004FF00202AF
:104C400010B143F232312CE040F2666129E094F871
:104C50002A004FF0020210B143F6E02121E040F2B9
:104C60005C711EE094F82A004FF0020210B143F686
:104C7000705116E040F2AE7113E000E00AE094F8E3
:104C80002A004FF0020210B143F2C25109E04FF482
:104C9000D76106E094F82A004FF0020298B144F27E
:104CA000AE7101A801F092FB94F82D00012830D0DC
:104CB00002282ED0032847D0042860D005287BD0B6
:104CC00007286ED0B0E021E007A902252D001A3197
:104CD0006B003B3152001A33BE003B339A001A3549
:104CE0005E013B351D011A3796023B37A05C04007C
:104CF000C06C0800E03F1E00E07D1E0007040009B4
:104D000008054008091040081D04000840F6F50198
:104D1000C7E794F82900012802D002280AD083E0CE
:104D200094F82E004FF0040208B17F4979E04FF06B
:104D3000753176E094F82E004FF0040208B17B49FB
:104D40006FE04FF067316CE094F82900012802D041
:104D500002280AD068E094F82E004FF0040208B14F
:104D600073495EE04FF06F315BE094F82E004FF036
:104D7000040208B16F4954E04FF08B3151E094F8D0
:104D80002900012802D002280CD04DE094F82E0012
:104D90004FF0040208B1684943E04FF05F3140E052
:104DA0000AE024E094F82E004FF0040208B16349B1
:104DB00037E04FF09A3134E094F82900012802D00E
:104DC00002280AD030E094F82E004FF0040208B117
:104DD0005B4926E04FF0483123E094F82E004FF075
:104DE000040208B157491CE04FF0853119E094F8EE
:104DF0002900012802D002280AD015E094F82E00DC
:104E00004FF0040208B150490BE04FF0923108E036
:104E100094F82E004FF0040208B14C4901E04FF025
:104E2000D13102A801F0D2FA02250AAB04222321D3
:104E300020460095FFF7A8FC04260FAB0C22232187
:104E400020460096FFF7A0FC10AB1222232120463B
:104E50000095FFF799FC08AB022227212046009518
:104E6000FFF792FC0BAB0422272120460095FFF7A9
:104E70008BFC09AB0622272120460095FFF784FC16
:104E800003AB0822272120460096FFF77DFC0CABE0
:104E90002622272120460095FFF776FC012711AB3B
:104EA00040F606022E2120460097FFF76DFC0DAB61
:104EB00041F606022E2120460095FFF765FC01AB66
:104EC00042F604022E2120460095FFF75DFC02AB5E
:104ED00000221E2120460096FFF756FC0EAB0B2247
:104EE000282120460097FFF74FFC04AB0C22282115
:104EF00020460096FFF748FC05AB0B222A212046EE
:104F00000097FFF741FC07AB0B222B2120460097AF
:104F1000FFF73AFC06AB07222B2120460096FFF74D
:104F200033FC13B0F0BD00007555351527070D1380
:104F30006F4F2F0F8B6B4B2B5F3F1F1F9A7A5A3A85
:104F40004828080E8565452592725232D1B17151BB
:104F500009B1032200E0002280F82720C17C01F083
:104F6000FC011143C174704780F82E1081F00103D9
:104F700012220421113001F05FB980F831100B4684
:104F800007220421083001F057B908B50421009127
:104F900000F1190300221F21FFF7F6FB08BD08B539
:104FA0000421009100F10D0300220321FFF7ECFB27
:104FB00008BD08B5042100F1110300220091FFF79C
:104FC000E3FB08BD08B50421009100F115030022A0
:104FD0000E21FFF7D9FB08BD08B50521009100F1AE
:104FE000220300220821FFF7CFFB08BD01494860DA
:104FF00070470000CC0000200EB5642392B28DE80B
:105000000E0082B2054810230188406889B2FBF780
:1050100007FF08B100200EBD01200EBDCC0000200E
:105020000EB5642392B28DE80E0082B205481023BB
:105030000188406889B2FBF7DDFF08B100200EBD92
:1050400001200EBDCC00002038B501248DF80000F1
:105050002246A31E69460248FDF7B7F8204638BD30
:10506000584E0020D3088B4201D300207047C05C0B
:1050700002F00701C84000F0010070473EB50C4641
:1050800004210022009102AB1146FFF749FB9DF875
:1050900008209DF8093002F00F011009CDE9000148
:1050A000BDF80A2002A12046FDF7E2FF3EBD000048
:1050B00025303258202D206D6F64656C3A202564B0
:1050C0002C2076657273696F6E3A2025642C2072ED
:1050D00065766973696F6E3A20256400FEB50446F3
:1050E00090F829000D46012829D0022829D0002354
:1050F00094F82B00012826D0052826D0092826D090
:105100000D2827D0022828D0062829D00A282AD0FE
:1051100003282BD05FF0000094F82A1049B301292E
:1051200029D002292AD0002294F82D6094F82C105E
:105130008DE8430013492846FDF79AFFFEBD102372
:10514000D6E74023D4E74020E6E78020E4E74FF4A9
:105150008070E1E74FF40070DEE74FF48060DBE73A
:105160004FF4C060D8E74FF40060D5E74FF48050AB
:10517000D2E76E22D8E740F25232D5E741F69022CC
:10518000D2E700008C65000810B588B00C460821F5
:10519000009106AB00220121FFF7C2FA9DF81B0027
:1051A0000DF1080C9DF818309DF819209DF81A1083
:1051B0008CE80F009DF81C109DF81D00CDE9000142
:1051C0009DF81E309DF81F2002A12046FDF750FFDC
:1051D00008B010BD4555493A253032583A2530328D
:1051E000583A253032583A253032583A253032581C
:1051F0003A253032583A253032583A253032580064
:105200001CB50C460421009101AB00220321FFF7DD
:1052100087FABDF80430BDF8062002A12046FDF74C
:1052200027FF1CBD50414E3A20253032582C2053C8
:10523000686F727420416464726573733A2025301C
:105240003258000010B5372826D012DC332823D07E
:1052500008DC232834D030281ED031281CD0322836
:1052600032D119E0342817D0352815D036282BD163
:1052700012E0642819D007DC38280DD039280BD06B
:10528000612821D100200DE0682815D0732808D0AE
:10529000742819D1012005E03038C0B2FEF7A4FB14
:1052A00005E00220FEF7F0FB01E000F005FDBDE89F
:1052B000104006A0FDF7CCBEBDE8104000F038B8A5
:1052C00012A0FDF7C5FEFEE710BD00004545505297
:1052D0004F4D20636F6E66696775726174696F6E9A
:1052E000206368616E6765642C20726573746172F7
:1052F0007420666F7220697420746F2074616B650E
:1053000020656666656374210D0A00005379737425
:10531000656D2068616C7465642C207265736574BA
:1053200020746F20636F6E74696E75650D0A0000DE
:1053300010B50DA0FDF78CFE0DA0FDF789FE12A0A3
:10534000FDF786FE15A0FDF783FE19A0FDF780FE90
:105350001CA0FDF77DFE21A0FDF77AFEBDE8104000
:1053600025A0FDF775BE000048656C700D0A0000B1
:105370002D2D2D2D2D2D2D2D2D2D2D2D2D2D2D2D5D
:105380002D2D2D0D0A000000302D39202D207365A4
:105390007420616464726573730D0A0061202020BB
:1053A0002D20616E63686F72206D6F64650D0A0059
:1053B000742020202D20746167206D6F64650D0AB4
:1053C00000000000732020202D20736E6966666542
:1053D00072206D6F64650D0A0000000064202020BB
:1053E0002D20726573657420636F6E6669677572D0
:1053F0006174696F6E0D0A00682020202D205468AA
:1054000069732068656C700D0A0000009AB000276F
:10541000FDA08DF85C7000683D46B9463E46B84632
:105420001990FBF78FFEFDF72DFBFDF7C1F9FDF796
:1054300089F9FDF77DFAFDF78FFAFDF73BFAFDF7E5
:1054400023FAFDF715F94FF4806A5046FDF740F94D
:105450004FF40060FDF73CF94FF48050FDF738F948
:105460000120FDF735F90220FDF732F9E7A0FDF73D
:10547000EFFDED48FFF7BAFDFEF77AF9EB490020A2
:10548000FEF7FAF928B1E9480178E9A0FDF7E0FD57
:1054900002E0EEA0FDF7DCFDE44901202939FEF72A
:1054A000EBF9E24C2A3C002828D0F0A0FDF7D0FD13
:1054B000607828B1012805D0022805D0F0A004E0CA
:1054C000F2A002E0F4A000E0F5A0FDF7C1FD17A9ED
:1054D0000220FEF73BF9DFF854B3ABF1060BE8B15D
:1054E0009DF85C2059460220FEF7D8F900287CD0B0
:1054F0009DF85C10EDA0FDF7ABFD07E0F5A0E4E73B
:105500001BF80710FAA0FDF7A3FD7F1C9DF85C00B7
:105510008742F5DBCCA000BFFDF79AFDF6A0FDF7B2
:1055200097FDFE49A069FEF713FEA069FEF738FF5C
:10553000A069FEF7B9FB00287ED0FFF7A3F901466A
:10554000F7A0FDF785FD4FF4006000BFFDF7C0F840
:105550006420FBF7B0FA4FF48060FDF79BF84FF43E
:105560000060FDF797F84FF48050FDF793F80120A5
:10557000FDF790F80220FDF78DF8ED48D0E9002303
:10558000A069FEF758FFEB49A069FEF7EDFAEA497A
:10559000A069FEF7E7FAA069FEF7D4FEA069FEF75E
:1055A000E1FFE649A069FEF7E2FC0221A069FEF7EF
:1055B00045FF0321A069FFF73AF8A069FEF74EFB0B
:1055C000DFA0FDF745FDE5A0FDF742FD6946A069B6
:1055D000FFF754FD6946E9A0FDF73AFD6946A06969
:1055E000FFF7D2FD6946E5A000E034E0FDF730FDAD
:1055F0006946A069FFF772FD6946E0A0FDF728FD46
:105600006946A069FFF7FCFD6946DCA0FDF720FDB7
:10561000DFF870A39AF8001021F00701491C21F06F
:10562000380141F040018AF800109AF8011021F089
:10563000300141F00C0100E00FE0103141F0C001F9
:105640008AF801104BF6CF41AAF80310607860B1D8
:1056500002280AD012E0CCA05EE7D6A0FDF7F8FC45
:10566000A069FEF705FC504670E7A069FEF77FFED3
:10567000A069FEF777FFA069FFF7B4F80122CF49D0
:10568000CF48FCF745FD40F26222CE49CE48FCF7F8
:105690003FFD0A20FBF70FFABA481A301890CB4C9E
:1056A000207828B1C5480078FFF7CCFD84F8009039
:1056B0005E4C2A3C2078012809D16D1C831EEDB276
:1056C000042219A9C048FCF780FD84F80090607896
:1056D000022837D12069E169884204D0BCA0FDF7D7
:1056E000B7FC2069E061D4E9021088422AD000EBBF
:1056F0004001C1EB8021B94808444279417BB8A000
:10570000FDF7A6FC00270BE000EB4001C1EB802178
:10571000B24808443844417DB7A0FDF799FC7F1C8E
:10572000B749E06851F820101539B942ECDC401C4B
:10573000C11700EB117121F00F01401AE06042A087
:10574000FDF786FC607801285CD1012D04D1AD49BC
:10575000022508780028FCD0AA4F3878F0B3022040
:10576000FCF7D4FF31489BF8001008300170A069A5
:10577000FEF7DCFC05218AF8151002218AF81610C4
:10578000A1788AF81710E188090A8AF81810E188C8
:105790008AF8191040F262228A491898FAF710FD27
:1057A0007848D4F82A101538C0F82210D4F82E10F2
:1057B000C0F82610D4F8321040F81A1FD4F836106A
:1057C0004160A069FEF7DFFDA069FEF7CBFE4FF454
:1057D0001F726C49A069FEF739FE00E01FE101214C
:1057E000A069FFF7CAFBA069FFF71AF8FBF78EFA6A
:1057F00060613878012806D1FBF788FA61690A31BF
:10580000884201E10AE101E1CCCC00005445535447
:10581000093A20454550524F4D2073656C662D74F2
:105820006573740D0A0000007C4D00202A000020E2
:10583000434F4E464947093A204164647265737389
:1058400020697320307825580D0A0000434F4E46DA
:105850004947093A2041646472657373206E6F741E
:1058600020666F756E64210D0A000000434F4E469E
:105870004947093A204D6F64652069732000000094
:10588000554E4B4E4F574E0D0A000000416E636857
:105890006F720D0A000000005461670D0A000000DD
:1058A000536E69666665720D0A000000434F4E46EE
:1058B0004947093A20546167206D6F646520616E25
:1058C00063686F72206C69737420282569293A20F7
:1058D00000000000446576696365206D6F64653A79
:1058E000204E6F7420666F756E64210D0A000000F3
:1058F000307825303258200054455354093A204915
:105900006E697469616C697A652044574D31303035
:1059100030202E2E2E200D0A00000000A4000020B2
:105920005B4552524F525D3A2025730D0A0000002C
:105930009064000885630008095D0008E3640008BE
:1059400053595354454D093A204E6F646520737482
:105950006172746564202E2E2E0D0A005359535423
:10596000454D093A205072657373202768272066D9
:105970006F722068656C702E0D0A000025730D0A89
:1059800000000000FD040020434F4E464947093AFD
:1059900020546167206D6F646520616E63686F726B
:1059A000206C6973743A204E6F7420666F756E6454
:1059B000210D0A005B4F4B5D0D0A0000D600002050
:1059C000584E0020F84F0020184E0020D50000202F
:1059D00044726F70706564210D0A0000FA0800209F
:1059E00046726F6D202530327820746F202530325A
:1059F000782064617461200030782530327820008E
:105A0000CC480020D4000020FFF4F3AEFBF77EF971
:105A100061690A31884201D387F8009096E0002737
:105A200069481BF807100170A069FEF77FFB012091
:105A30008AF815008AF81600A078401CA0708AF831
:105A400017006248D4F82A10C0F82210D4F82E109B
:105A5000C0F82610D4F8321040F81A1FD4F83610C7
:105A60004160A069FEF78FFCA069FEF77BFD5749F6
:105A700018221531A069FEF7E9FC0121A069FFF7A2
:105A80007CFAA069FEF7CCFEFBF740F9606184F870
:105A9000039001E0E07828B9FBF738F961690A3131
:105AA0008842F7D3FBF732F97F1C042FB8DB464856
:105AB0009BF800100170A069FEF738FB05218AF8F9
:105AC000151001218AF81610A1788AF81710E188BC
:105AD000090A8AF81810E1883C488AF81910D4F8A5
