:020000040800F2
:10000000080B00209D01000851230008A7010008EB
:10001000A9010008AB010008AD01000800000000C4
:10002000000000000000000000000000AF01000818
:10003000B101000800000000B301000845240008D9
:10004000B7010008B7010008B7010008B7010008B0
:10005000B7010008B70100084D080008B701000803
:10006000B7010008B7010008B7010008B701000890
:10007000B7010008B7010008B7010008B701000880
:10008000B7010008B7010008B7010008B701000870
:10009000B7010008B7010008B7010008B701000860
:1000A000B7010008B7010008B7010008B701000850
:1000B000B7010008B7010008B7010008B701000840
:1000C000B7010008B7010008B7010008B701000830
:1000D000B7010008B70100087F280008B701000831
:1000E000B7010008B7010008B7010008B701000810
:1000F000B7010008B7010008B7010008B701000800
:10010000B7010008B7010008B7010008B7010008EF
:10011000B7010008B7010008B7010008B7010008DF
:10012000B7010008B7010008B7010008B7010008CF
:10013000B70100080000000000000000B70100083F
:10014000B7010008B7010008B7010008B7010008AF
:10015000B7010008B7010008B7010008B70100089F
:10016000B7010008B7010008B7010008B70100088F
:10017000B7010008B70100080000000000000000FF
:10018000B7010008B7010008DFF80CD000F034FB1D
:1001900000480047514F0008080B002006488047E0
:1001A00006480047FEE7FEE7FEE7FEE7FEE7FEE75C
:1001B000FEE7FEE7FEE7FEE7E92400088901000804
:1001C00040EA01039B0703D009E008C9121F08C0D9
:1001D000042AFAD203E011F8013B00F8013B521E59
:1001E000F9D27047D2B201E000F8012B491EFBD2D0
:1001F00070470022F6E710B513460A460446194632
:10020000FFF7F0FF204610BD30B50446002003463E
:1002100000E05B1C934203D2E05CCD5C401BF8D055
:1002200030BD2DE9FE4F804681EA0300C00F0C4629
:10023000009021F0004123F00045B8EB0200A941F5
:1002400005D24046214690461C460B46024623F006
:100250000040104347D0270DC7F30A00C3F30A51EB
:100260000290401A019040286BDAC3F3130040F467
:10027000801B0098924620B10023D2EB030A63EB67
:100280000B0B01985946C0F14002504600F0DDF9D1
:1002900006460D4650465946019A00F0F5F910EB16
:1002A00008006141002487EA115284EAE7731A4387
:1002B00040D0009A62B3019A012A4FEA075215DC36
:1002C000001B61EB02014FF0004202EA0752CDE948
:1002D0000042001C41F5801132462B4600F02CFAFA
:1002E00003B0BDE8F08F40462146F9E7001B61EB03
:1002F0000201001C41F5801300185B412018A2F593
:10030000001747EB030140EAD570B6196D4111E0C3
:100310006D084FEA360645EAC0754FEA0752001BE2
:1003200061EB0201001C41F5801149084FEA3000E1
:100330000019514132462B4603B0BDE8F04F00F0A2
:10034000ECB90098012240000023D0EB020263EBDD
:10035000E073009821464FEAE074B8EB000061EBCF
:100360000401E9E783F000435BE781F0004158E7CF
:100370002DE9FE4F81EA030404F0004421F000411E
:1003800000944FF0000B23F0004350EA01045ED0CC
:1003900052EA03045BD0C3F30A54C1F30A552C4458
:1003A000A4F2F3340194A0FB0254C1F3130141F40D
:1003B0008011C3F3130343F4801301FB024400FBD9
:1003C000034E840A970A44EA815447EA8357A4FB00
:1003D000076802958D0A05FB07854FEA932C04FBFD
:1003E0000C542705029D4FEA065847EA1637B5EB2D
:1003F00008056EEB070C870E920E47EA811742EA5A
:100400008312A7FB0201B6EB0B0164EB00042B0D7A
:1004100043EA0C335E1844EB1C50DA465146E7FBC6
:100420000201C5F313044FEA0B3343EA14534FEAB6
:100430000432019C43EA0603A4F10C040294009CDC
:10044000CDE900B400F078F903B0BDE8F08F0020EA
:100450000146F9E72DE9F04D81EA030404F0004B71
:1004600021F0004514464FF0000A23F0004150EA05
:10047000050220D054EA01021DD0C5F30A570246F6
:10048000C5F31303C1F31300C1F30A5640F48015FA
:1004900043F48013A7EB0608101BD64608F2FD387C
:1004A00073EB050002D308F1010801E092185B41EB
:1004B000B8F1000F03DA00200146BDE8F08D0020FE
:1004C0004FF48011064684460EE0171B73EB0507B8
:1004D00005D3121B63EB050306434CEA010C4908E4
:1004E0004FEA300092185B4150EA0107EDD152EA21
:1004F000030012D082EA040083EA0501084305D014
:10050000101BAB4106D20122002306E000224FF06F
:10051000004302E06FF0010253101AEB06004CEBAF
:10052000085110EB0A0041EB0B01BDE8F04D00F063
:10053000F4B80EB540F2334102910021CDE900112B
:100540000A460B4600F0F8F803B000BD70B5C1F3E1
:100550000A5201F000450024C1F3130140F2FF33B9
:1005600041F480119A4201DA002070BD40F2334319
:100570009A42A2F2334203DC524200F075F800E0E6
:1005800090402C43F1D0404270BD00F0004230F06A
:1005900000400AD0C10D01F56071C0F3160042EAB7
:1005A0000151C208400711437047002001467047BF
:1005B00001F0004330B421F0004150EA010206D0BE
:1005C0000A0DA2F56072C1F31301002A02DC30BCEF
:1005D00000207047440F44EAC104C100E01830BC59
:1005E00000EBC25000F062B82DE9F05F0546002034
:1005F00092469B4688460646814640241BE0284694
:1006000041464746224600F02FF853465A46C01A44
:10061000914110D311461846224600F016F82D1AC3
:1006200067EB01084F4622460120002100F00DF83B
:1006300017EB00094E41201EA4F10104DFDC4846FF
:1006400031462A464346BDE8F09F202A04DB203A83
:1006500000FA02F1002070479140C2F1200320FA15
:1006600003F3194390407047202A04DB203A21FA13
:1006700002F00021704721FA02F3D040C2F12002BB
:100680009140084319467047202A06DBCB17203AD1
:1006900041FA02F043EAE07306E041FA02F3D04087
:1006A000C2F1200291400843194670470029A8BFB3
:1006B0007047401C490008BF20F00100704710B48B
:1006C000B0FA80FC00FA0CF050EA010404BF10BC40
:1006D000704749B1CCF1200421FA04F411FA0CF16D
:1006E00018BF012121430843A3EB0C01CB1D4FEAA6
:1006F00000614FEA102042BF002010BC704700EBA1
:10070000C35010440029A4BF10BC7047401C4900CE
:1007100008BF20F0010010BC704710B5141E73F123
:10072000000408DA401C41F1000192185B411A43B1
:1007300001D120F0010010BD2DE9F04D92469B46FD
:1007400011B1B1FA81F202E0B0FA80F220329046A3
:10075000FFF77BFF04460F4640EA0A0041EA0B011F
:1007600053465A46084313D0114653EA010019D0A4
:10077000C8F140025046FFF777FF05460E46504647
:1007800059464246FFF761FF084305D0012004E0C7
:1007900020463946BDE8F08D0020054346EAE07664
:1007A0002C4337430A986305E40AA0EB08000022B3
:1007B000FD0A44EA47540A3002D500200146E9E721
:1007C000010510196941DDE9084500196941BDE8D5
:1007D000F04DA2E70EB5C10F80EAE0700844CA07E9
:1007E000002140F233438DE80E000A460B46FFF726
:1007F000A3FF03B000BD0000064C074D06E0E06813
:1008000040F0010394E8070098471034AC42F6D357
:10081000FFF7BEFCC45C0008E45C000830B5041EB1
:1008200071F1000404DB4FF00044404264EB01012D
:10083000141E73F1000405DB1C464FF000435242C6
:1008400063EB04038B4208BF824230BD012000F0FD
:1008500023B831B500F01AF9044600F017F90099F1
:10086000001B8842F9D338BD70B501280FD1084C60
:10087000084D206803F076FA0121284600F0F8F8C8
:100880000028F6D1BDE87040062000F051BB70BDD5
:10089000BC00002000040240044910B50A6802426E
:1008A00002D00860FFF7E0FF10BD0000143C0140DB
:1008B0002DE9F84FDFF888B100224FF001084FF022
:1008C000030A4FF00F090BF1040E00BF0B6808FA82
:1008D00002F42340A3426ED14D68022D01D0122DA7
:1008E0000ED1D50800EB850CDCF820505607F70E2A
:1008F00009FA07F6B5430E69BE402E43CCF82060D6
:10090000066855000F790AFA05FC07F0030726EA86
:100910000C06AF40374307604E68012E05D0022E0B
:1009200003D0112E01D0122E0ED18668CF6826EA90
:100930000C06AF40374387604668A6430C79C4F382
:100940000014944034434460C4688E6824EA0C0464
:10095000AE402643C6604C68E4006AD5394C256831
:1009600045F480452560246822F0030504F48044A2
:100970000094354C2E19D6F8084895072F0F09FA20
:1009800007F5AC43314DA84201D1002529E0304D97
:10099000A84201D1012524E02E4DA84201D1022513
:1009A0001FE02D4DA84201D103251AE02B4DA8428E
:1009B00002D1042515E03CE0294DA84201D10525CE
:1009C0000FE0284DA84201D106250AE0264DA84295
:1009D00001D1072505E0254DA84201D1082500E0F9
:1009E0000925BD402543C6F80858DBF800405D46A0
:1009F0004E689C43F60300D51C432C60DEF8004093
:100A000075464E689C43B60300D51C432C600C4DC4
:100A100008352C684E689C43F60200D51C432C60B8
:100A2000074D0C352C684E689C43B60200D51C431C
:100A30002C60521C102AFFF449AFBDE8F88F00006B
:100A4000003C0140443802400030014000000240B8
:100A50000004024000080240000C02400010024066
:100A60000014024000180240001C02400020024016
:100A70000069084000D00120704742694A40426145
:100A800070470AB1816170470904FBE701480068BB
:100A900070470000D800002070B5040004D094F81E
:100AA0003D00002510B106E0012070BD84F83C50E7
:100AB000204600F0D9F9242084F83D002068016820
:100AC00021F00101016000F037FB33492268B0FBDF
:100AD000F1F15160314A6368934206D94FF496733D
:100AE00059434FF47A73B1FBF3F12368491C19623F
:100AF000616891420BD84900B0FBF1F2C2F30B02DE
:100B0000042A01D2042019E0B0FBF1F016E0A3683A
:100B10009BB301EBC10202EB0112B0FBF2F242F413
:100B20008042120530D04BB301EBC10202EB011140
:100B3000B0FBF1F040F4804040F400402168C8610F
:100B4000D4E90701084321680860D4E90310084389
:100B500021688860D4E9050108432168C8602068DD
:100B6000016841F0010101602564202084F83D0006
:100B7000256384F83E50002070BD00E006E001EBE4
:100B80004102B0FBF2F2CCE70120D7E701EB4101D3
:100B9000B0FBF1F0D0E7000040420F00A08601005A
:100BA0002DE9F84F04460AA8984690E8600294F8A8
:100BB0003D0092468B4620287CD142F210730122E0
:100BC0006949204601F0DCF90028F5D194F83C0091
:100BD00001286FD0012084F83C002068016821F4CE
:100BE00000610160222084F83D00402084F83E002E
:100BF000002727645D48E062434652465946204636
:100C0000CDF8009001F0FFF828B1206C84F83C701A
:100C1000042837D072E0BEB1012E1ED0DFF850811B
:100C20002068022E31D0416980690090032E77D868
:100C3000012E1FD0022E35D04B46002241462046C1
:100C400001F09EF9B8BB47E02068416981690091D5
:100C5000016841F4007101607BE02068016821F4C3
:100C6000806101602068416981690091016841F4F7
:100C7000007101604946204601F010FAE0B1206C95
:100C800020283BD00120BDE8F88F016821F4806165
:100C900001602068016841F40061016020684169D9
:100CA000806900904B4600224146204601F068F9D9
:100CB00008B905E056E021E020680069287048E0A6
:100CC0002068016841F400710160206800692870A3
:100CD0002068006968703CE02068016821F4806148
:100CE00001602068006905F8010B761EB6B24B461C
:100CF00000224146204601F043F908B10320C2E733
:100D00002068016841F4007101602068006905F8FD
:100D1000010B2068006905F8010BB61E15E0FFE71E
:100D20004946204601F0BAF90028A8D12068006998
:100D300005F8010B2068761EB6B24169C943490720
:100D400004D4006905F8010B761EB6B2002E7FF4BC
:100D50006DAF202084F83D0084F83E7084F83C702C
:100D6000002090E702208EE7020010000000FFFF45
:100D7000040001002DE9F84F0446DDE90A6590F80A
:100D80003D00DDF83080994692468B46202865D19B
:100D900042F2107301223249204601F0F1F8002896
:100DA0005CD194F83C00012858D0012084F83C0024
:100DB0002068016821F400610160212084F83D0071
:100DC000402084F83E00002727642648E0624B4616
:100DD000524659462046CDF8008001F085F808B308
:100DE000206C84F83C70042836D007E04146204649
:100DF00001F088F928B1206C042828D00320BDE830
:100E0000F88F216816F8010B086120686D1EADB2DD
:100E10004169C943490705D435B116F8011B016181
:100E20006D1EADB2002DE1D14146204601F06AF9B8
:100E30000028E0D154F83D0B016841F400710160D5
:100E4000202004F81E09E77767770020D7E720689D
:100E5000016841F4007101600120D0E70220CEE773
:100E6000020010000000FFFF00B500680E4987B0C7
:100E7000884216D1C02000901220019001200290DB
:100E8000032003900420049069460848FFF710FDF2
:100E90000748016841F400110160006800F4001087
:100EA000059007B000BD000000540040000402405F
:100EB0004038024002480168491C01607047000048
:100EC000D80000200B4810B5016841F400710160A2
:100ED000016841F480610160016841F48071016042
:100EE000032000F05BF8002000F006F800F015F891
:100EF000002010BD003C024010B5044600F002F98D
:100F00004FF47A71B0FBF1F000F02CFE0022214684
:100F1000501E00F023F8002010BD10B5032000F093
:100F20003DF80022BDE810401146501E00F016B8F2
:100F300000F01F02012191404009800000F1E020F3
:100F4000C0F88012704700F01F0201219140400953
:100F5000800000F1E020C0F800117047F0B40E4BA3
:100F60001B680C46C3F30223C3F10705042D00D907
:100F70000425191D072901D2002300E0DB1E0126EC
:100F800006FA05F1491E214099409E40761E164002
:100F90003143F0BC01F0DEB90CED00E0064900F091
:100FA000070208684FF6FF03184040EA0220034A90
:100FB00010430860704700000CED00E00000FA05E7
:100FC000704700002DE9F047DFF830A105460F46D5
:100FD000DAF8000000F00F01F8B28146B94208D2F9
:100FE00001468AF80010DAF8000000F00F00B8425D
:100FF0006AD12878424C800705D52068A96820F07E
:10100000F000084320602878C0074FD03C4968684A
:101010000839012819D002281AD0032818D00968E5
:101020008907002950DA216821F00301014321607A
:10103000FFF72CFD0646686841F28838012810D079
:1010400002281AD003281ED02CE009688903E8E79B
:1010500009688901E5E700BFFFF718FD811B4145DD
:101060001DD82068C0F381000128F5D11EE000BF23
:10107000FFF70CFD811B414511D82068C0F38100AA
:101080000228F5D112E02068FFF700FD801B4045E3
:10109000F9D904E0FFF7FAFC811B414502D903208E
:1010A000BDE8F087206810F00C0FF3D1DAF80010DB
:1010B000504601F00F01B94208D980F8009000684D
:1010C00000F00F00B84201D00120E9E7287840077E
:1010D00005D52068E96820F4E050084320602878AE
:1010E000000706D52068296920F4604040EAC10065
:1010F00020600020FFF700FF0020D1E7003C024005
:101100000838024010B500F043F808490968F02299
:1011100092FAA2F201F0F001B2FA82F2D140044A4E
:10112000515CC8400349086010BD00000838024007
:10113000265C0008DC00002010B5FFF7E3FF07493C
:1011400009684FF4E05292FAA2F201F4E051B2FAC7
:1011500082F2D140024A515CC84010BD08380240BA
:10116000265C000810B5FFF7CDFF074909684FF46A
:10117000604292FAA2F201F46041B2FA82F2D140E6
:10118000024A515CC84010BD08380240265C000885
:1011900030B51948006810F00C01184812D04410FE
:1011A00004290ED008290DD11349091F0A6802F03D
:1011B0003F030A68550247F6C07204D5B4FBF3F04A
:1011C00003E0204630BDB0FBF3F00B680968134024
:1011D00092FAA2F2B2FA82F2D34058434FF440326C
:1011E00092FAA2F201F44031B2FA82F2D140491CE3
:1011F0004900B0FBF1F030BD083802400024F40093
:10120000054810B50068000605D5FFF7D9FE02496C
:101210008020891C087010BD0C3802402DE9F84F61
:101220000446DFF8CC820078A8F1040BC007ABF1CC
:10123000040537D0D8F800104046C1F381010129D8
:1012400008D00068C0F3810002280AD1DBF8000052
:10125000400206D52868800324D56068002878D02D
:1012600020E0A3492079891F0870606868B1FFF702
:101270000DFC064605E000BFFFF708FC801B642854
:1012800068D828688003F7D50CE0FFF7FFFB064617
:1012900005E000BFFFF7FAFB801B6428F0D8286840
:1012A0008003F7D42078934E80074FF0010A4FF067
:1012B000000742D5D8F80010404611F00C0F08D0B6
:1012C0000068C0F3810002280AD1DBF80000400268
:1012D00006D42868800714D5E068012839D110E0C9
:1012E000E068D8B1C6F800A0FFF7D0FB814605E062
:1012F000FFF7CCFBA0EB09000228C1D828688007C3
:10130000F6D52868F82292FAA2F22169B2FA82F29E
:1013100020F0F8009140084328600EE03760FFF7A6
:10132000B5FB814606E000BFFFF7B0FBA0EB09006C
:1013300002280FD828688007F6D42078000728D51F
:101340006D486169A1B1C0F800A0FFF79FFB81461D
:1013500008E0CAE079E000BFFFF798FBA0EB0900C6
:10136000022872D862486C3000688007F4D510E01B
:101370000760FFF78BFB814606E000BFFFF786FBA7
:10138000A0EB0900022860D859486C30006880073B
:10139000F4D42078400749D555483830016841F0E9
:1013A00080510160006800F080500090534801684F
:1013B00041F480710160FFF769FB814606E000BFE0
:1013C000FFF764FBA0EB090002283ED84B480068F9
:1013D000C005F5D5DFF81891207A09F1680989F878
:1013E0000000A06888B1FFF751FB009008E000BF43
:1013F000FFF74CFB0099411A41F2883081426CD8CA
:10140000D9F800008007F3D510E0FFF73FFB00900C
:1014100008E000BFFFF73AFB0099411A41F288301B
:1014200081425AD8D9F800008007F3D4A069E0B30C
:10143000D8F80010C1F38101022956D0022837667E
:1014400004D0FFF723FB04464AE046E0FFF71EFB0B
:10145000074604E0FFF71AFBC01B02283DD82868A6
:101460008001F7D4D4E90701084347F6C07292FA25
:10147000A2F2616AB2FA82F29140A26A4FF0FF339F
:1014800003EB52024FF4403393FAA3F3B3FA83F31E
:101490009A40114308434FF0706292FAA2F2E16A57
:1014A000B2FA82F29140084300E01CE0CBF8000061
:1014B000C6F860A0FFF7EAFA044604E0FFF7E6FA90
:1014C000001B022809D828688001F7D50BE000BF6F
:1014D000FFF7DCFA001B022802D90320BDE8F88FD1
:1014E00028688001F4D40020F8E70120F6E7000026
:1014F0000838024000004742800E4742007000401A
:1015000070B5040004D094F85100002510B106E035
:10151000012070BD84F85050204600F037F80220BA
:1015200084F851002068016821F040010160D4E98D
:1015300001010843D4E903121143084361690843D8
:10154000218B01F400710843E1690843216A0843D3
:10155000A16A084321680860A069042101EA1040DB
:10156000616A084321684860A06AB0F5005F02D153
:101570002168E06A08612068C16921F40061C161E5
:101580006565012084F85100002070BD00B5006839
:101590000E4987B0884216D10D480021026842F4F6
:1015A00080520260006800F480500590E0200090B6
:1015B0000220CDE901010320039005200490694633
:1015C0000448FFF775F907B000BD00000030014086
:1015D00044380240000002402DE9F84F4FF0000A65
:1015E0009946044617460D46ADF800A04068564699
:1015F0004FF0040BB0F5827F01D1A06878B194F868
:101600005000012816D0012084F85000FFF73EFA60
:10161000804694F8510001280ED00226D1E084F8CB
:1016200051B013460A462046CDF8009000F08CF9E0
:10163000BDE8F88F0220FBE7002D7DD0002F7BD086
:1016400084F851B0C4F854A0A563A787E787C4F80D
:1016500030A0A4F834A0A4F836A0C4F840A0C4F880
:1016600044A0A06A4FF40057B8420DD12068016829
:101670004DF6FF72114001602068016841F400518D
:101680000160E08F401EE087A068B0F5004F04D1F4
:101690002068016821F480410160206801684906E2
:1016A00003D4016841F040010160E068B8B131E065
:1016B00020688168C90706D0007B05F8010BE08F20
:1016C000401EE0870BE0B9F1000F39D0B9F1FF3FC0
:1016D00005D0FFF7DBF9A0EB0801494530D2E08FD8
:1016E0000028E5D119E020688168C90706D0C068E4
:1016F00025F8020BE08F401EE0870BE0B9F1000FE8
:101700001ED0B9F1FF3F05D0FFF7C0F9A0EB0801EB
:10171000494515D2E08F0028E5D1A06AB8422FD103
:101720002068016841F48051016001224B46114656
:101730002046CDF8008000E042E000F03DFE08B118
:1017400003263EE0E068B0F5006F20680FD0007B14
:10175000287001224B4611462046CDF8008000F04B
:101760002BFE38B1606D40F002006065E8E7C068AC
:101770002880EEE72068C068ADF80000BDF80000E2
:10178000204600F007FE18B1606D40F02000606553
:1017900042464946204600F0EDFD20B1606D40F024
:1017A00020006065012620688168C90606D5616D44
:1017B00041F0020161654FF6EF718160606D00B12B
:1017C0000126012084F8510084F850A030462FE70C
:1017D0002DE9F84F044690F8500000269846174629
:1017E0000D4601280DD04FF0010A84F850A0FFF7F4
:1017F0004DF9834694F85100B146012804D00226E1
:101800009CE00220BDE8F88F002D7CD0002F7AD01C
:10181000032084F85100C4F854902563A786E78616
:10182000C4F83890A4F83C90A4F83E90C4F84490D2
:10183000C4F84090A068B0F5004F04D1206801685A
:1018400041F480410160A06A4FF40057B8420AD1C8
:10185000206801684DF6FF72114001602068016840
:1018600041F40051016020680168490603D4016811
:1018700041F040010160E068B0F5006F17D033E03F
:1018800020688168890706D535F8021BC160E08EA3
:10189000401EE0860BE0B8F1000F23D0B8F1FF3F07
:1018A00005D0FFF7F3F8A0EB0B0141451AD2E08E0B
:1018B0000028E5D11BE020688168890706D515F866
:1018C000011B0173E08E401EE0860DE0B8F1000FB1
:1018D00008D0B8F1FF3F07D0FFF7D8F8A0EB0B0115
:1018E000414501D3032629E0E08E0028E3D1A06A18
:1018F000B84204D12068016841F4805101605A4621
:101900004146204600E018E000F034FD18B1606D5B
:1019100040F020006065A06818B92068C168806840
:10192000009020688168C90705D0C168ADF8001033
:10193000BDF80010F6E7606D00B1012684F851A0F3
:1019400084F8509030465DE72DE9F84F4FF0000BDA
:101950000A9E984691468A460446ADF800B090F833
:1019600050005D4601280ED0012084F85000FFF79A
:101970008DF8074694F8510001280FD06068B0F543
:10198000827F09D102E00220BDE8F88FA06818B973
:1019900094F85100042801D00225CFE0BAF1000FDD
:1019A0000AD0B9F1000F07D0B8F1000F04D094F8B5
:1019B0005100012802D004E00125BFE0052084F891
:1019C0005100C4F854B0C4F83890A4F83E80A4F88C
:1019D0003C80C4F830A0A4F83680A4F83480C4F861
:1019E00040B0C4F844B0A06A4FF4005840450AD152
:1019F000206801684DF6FF7211400160206801689F
:101A000041F40051016020680168490603D401686F
:101A100041F040010160E068B0F5006F29D05AE064
:101A2000A0B120688168890710D53AF8021BC1600F
:101A3000E08E401E0004000CE08607D1A06A4045FD
:101A400004D12068016841F480510160E08F48B101
:101A500020688168C90705D0C06829F8020BE08FAB
:101A6000401EE087701C04D0FFF710F8C01BB04286
:101A70002FD2E08E0028D3D1E18F0029D0D130E0E1
:101A8000A0B120688168890710D51AF8011B01737D
:101A9000E08E401E0004000CE08607D1A06A40459D
:101AA00004D12068016841F480510160E08F48B1A1
:101AB00020688168C90705D0C06809F8010BE08F6C
:101AC000401EE087701C06D0FEF7E0FFC01BB0424E
:101AD00001D3032532E0E08E0028D1D1E18F002927
:101AE000CED1A06A404512D101223346114620468C
:101AF000009700F061FC20B1606D40F0020060656D
:101B0000E7E72068C068ADF80000BDF80000206875
:101B10008168C90607D5616D41F0020161654FF624
:101B2000EF71816001253A463146204600F022FCE3
:101B300020B1606D40F0200060653DE7012084F831
:101B4000510084F850B028461EE74FF0E0210428E9
:101B5000086903D020F004000861704740F00400D9
:101B6000FAE7704710B5401EB0F1807F01D3012025
:101B700010BD4FF0E02460610F21601700F0EAFB18
:101B80000020A06107202061002010BD10B5FFF7E4
:101B9000E8FF10BD70B5040004D094F839000025AA
:101BA00010B106E0012070BD84F83850204600F0E6
:101BB00023F8242084F839002068C16821F40051FA
:101BC000C160204600F0BAFC2068016921F4904110
:101BD00001612068416921F02A0141612068C168E2
:101BE00041F40051C160E563202084F8390084F895
:101BF0003A00002070BD00002DE9F0430446006863
:101C00001D49022501260327DFF8709087B04FF0A9
:101C1000070888420FD11A48016841F0100101609D
:101C20000068694600F01000059078028DE8E10137
:101C30004846FEF73DFE13492068884218D11048F7
:101C4000001F016841F4003101600068694600F43A
:101C5000003005900C208DE8E1014846FEF728FE93
:101C6000002211462620FFF779F92620FFF76BF9AD
:101C700007B0BDE8F0830000001001400000024002
:101C800044380240004400402DE9F041044690F8F9
:101C90003A0098460D4620284AD105B3FAB194F887
:101CA0003800012844D0012084F838000026E6637B
:101CB000222084F83A00A285E2854FF48057E08D17
:101CC0004346401EE085A0684FF00002B8424FF046
:101CD0002001204614D100F087FDA0B902E00120C8
:101CE000BDE8F081206900282068406803D0C1B2B7
:101CF00025F8011B12E0C0F3080125F8021B0DE0D6
:101D000000F072FD08B10320EAE72069002820688E
:101D1000406801D000F07F0005F8010BE08D00283D
:101D2000CDD1202084F83A0084F838600020D7E72D
:101D30000220D5E72DE9F041044690F83900984695
:101D40000D46202849D105B3FAB194F8380001288E
:101D500043D0012084F838000026E663212084F86F
:101D60003900A284E2844FF48057E08C4346401E41
:101D7000E084A0684FF00002B8424FF08001204696
:101D800011D100F031FDF8B902E00120BDE8F08189
:101D900028882168C0F308004860206908B16D1CDC
:101DA00008E0AD1C06E000F01FFD68B9216815F8D9
:101DB000010B4860E08C0028D7D143460022402127
:101DC000204600F011FD08B10320DFE7202084F851
:101DD000390084F838600020D8E70220D6E701688F
:101DE0004A69D24352050CD46FF480624A610421DF
:101DF0000164002140F8301F20224273017301204A
:101E00007047002070472DE9F84F044600680F46E0
:101E1000DDF828B001689846164641F480610160FB
:101E20002068016841F4807101604FF001195B4640
:101E300000224946204600F0A3F8F0BB216807F0D5
:101E4000FE00086109F1010A5A465146204600F099
:101E5000DFF818B1206C042811D036E02068416901
:101E6000806900905946204600F04CF950B1206C32
:101E700004282AD12068016841F400710160012022
:101E8000BDE8F88FF5B2B8F1010F08D02168300A2B
:101E900008615946204600F035F90028E7D120684E
:101EA00005615946204600F02DF90028DFD1206851
:101EB000016841F48071016000E006E05B460022A9
:101EC0004946204600F05CF808B10320D8E72168B5
:101ED000F8B240F0010008615A465146204600F031
:101EE00097F80028B6D1CBE72DE9F84304460068FF
:101EF0000E46DDF8208001681F46154641F48071CA
:101F00000160434600224FF00111204600F038F8EE
:101F1000D8B9216806F0FE000861424617492046FC
:101F200000F076F828B1206C04280ED10120BDE81D
:101F3000F88320684169806900904146204600F09E
:101F4000E1F820B1206C042811D00320EFE7EEB2B5
:101F5000012F08D02168280A08614146204600F078
:101F6000D1F80028EED1206806610020DFE7206864
:101F7000016841F400710160D8E70000020001002F
:101F80002DE9F05F1E4690460D460446FEF77EFDA5
:101F900081464FF0000A4FF0200BC5F30747B8F118
:101FA000000F09D026E0701C06D0D6B1FEF76EFDFA
:101FB000A0EB0900B04214D82068012F06D0806938
:101FC00025EA00000004000C1DD0ECE74069F7E7AB
:101FD000701C0FD02EB1FEF759FDA0EB0900B042E6
:101FE00008D944F830AF84F80DB084F80CA0032071
:101FF000BDE8F09F2068012F07D0806925EA000026
:102000000004000CE4D00020F2E74069F6E700008D
:102010002DE9F04791460D460446FEF737FD82460E
:1020200000264FF02008C5F307472AE020684069E2
:10203000C043400512D42068016841F4007101607A
:1020400021686FF48060486104202064266384F86E
:102050003D8084F83C600120BDE8F087B9F1FF3F86
:102060000FD0B9F1000F05D0FEF710FDA0EB0A016B
:10207000494506D944F8306F84F80D802673032053
:10208000EAE72068012F07D0D0F8180025EA000001
:102090000004000CE0D0C9E74069F7E72DE9F04102
:1020A00088460446FEF7F2FC00250646202722E07B
:1020B0004069C043C0060CD421686FF0100048612D
:1020C0002564256384F83D7084F83C500120BDE808
:1020D000F081B8F1000F04D0FEF7D8FC811B414518
:1020E00009D954F8400F40F0200044F80409677003
:1020F00025700320EBE720684169C9434906D7D41E
:102100000020E4E770B50D460446FEF7BFFC064626
:102110001AE02046FFF763FE08B1012070BD681C7D
:1021200012D025B1FEF7B2FC801BA8420CD954F89E
:10213000400F40F0200044F81009002020602021CA
:1021400061732073032070BD20684069C04300069E
:10215000DFD4002070BD000030B50A4D4FF4E054CC
:1021600085B0002221462846FEF78BFC0120002185
:102170000094CDE90101039169462846FEF798FBDA
:1021800005B030BD000802404FF48061064B884224
:1021900005D04900884202D04900884203D101227B
:1021A0001846FEF76EBC7047000802404FF480618D
:1021B000064B884205D04900884202D04900884237
:1021C00003D100221846FEF75CBC704700080240AD
:1021D0004FF48061064A884205D04900884202D007
:1021E0004900884202D11046FEF747BC7047000004
:1021F0000008024070B5274886B00025016841F00C
:1022000080010160016801F080010591016841F0E1
:1022100001010160016801F001010591016841F0CF
:1022200002010160016801F002010591016841F0BD
:10223000040101600068012400F0040005901648C4
:102240006946CDE90040022002901448FEF730FBB9
:102250004FF4E0560096CDE901450395104D6946CF
:102260002846FEF725FB1020CDE900040320CDE928
:1022700002400C4C69462046FEF71AFB002231460C
:102280002846FEF7FEFB012210212046FEF7F9FB4F
:1022900006B070BD3038024000001110000402404A
:1022A0000008024000000240094808494FF48042FB
:1022B000016049F64041416000218160C0E903129C
:1022C00041618161C1610162FEF7E6BB00540040DB
:1022D0006C0800200C480B494FF4007201604FF469
:1022E0008271416000218160C1600161C0E9051215
:1022F0002022C0E90721416281620A21C162FFF701
:10230000FFB8000000300140B00800200F4810B5B1
:102310000D4901604FF48271416000218160C1600C
:102320004FF400720161C0E905121022C0E90721D3
:10233000416281620A21C162FFF7E2F8BDE8104004
:102340004FF4FA70FEF785BA00300140B008002063
:10235000FEF756BF0907090E002806DA00F00F0045
:1023600000F1E02080F8141D704700F1E02080F8B3
:102370000014704738B50B460092044600228021B5
:1023800000F01AF8002804D0606D40F0200060656D
:10239000032038BD4168B1F5827F0BD18168B1F56A
:1023A000004F02D0B1F5806F04D10068016821F0C0
:1023B00040010160002070472DE9F0411D4616469E
:1023C0000F460446DDF8188035E0681C33D02DB187
:1023D000FEF75CFBA0EB0800A8422CD32068416804
:1023E00021F0E00141606068B0F5827F0BD1A06808
:1023F000B0F5004F02D0B0F5806F04D120680168BD
:1024000021F040010160A06AB0F5005F0AD12068A8
:1024100001684DF6FF72114001602068016841F4C7
:1024200000510160012084F85100002084F8500020
:102430000320BDE8F081206880683840B042C4D1F4
:102440000020F6E710B5FEF735FDBDE81040FFF7B8
:102450009DBB000030B5224893B00025016841F0D3
:1024600080510160006800F0805011901D480168A3
:1024700041F4804101600068022400F48040119022
:102480000120039010200490009406940820CDE9C8
:102490000750A820CDE9090404200B906846FEF7F8
:1024A000BDFE0CA90F2081E831004FF4A0500F9021
:1024B000E002109005210CA8FEF784FDFEF722FE35
:1024C0004FF47A71B0FBF1F0FFF74CFB0420FFF7FB
:1024D0003CFB00220F21501EFEF740FD13B030BD23
:1024E00040380240007000401048016841F470011B
:1024F00001600F48016841F0010101600C4A0021B0
:102500000832116002680B4B1A400260031D0A4A30
:102510001A60026822F48022026005480C300160D3
:1025200002495806803908607047000088ED00E0D5
:1025300000380240FFFFF6FE103000242DE9F04184
:1025400004460068016921F44052E16811430161C9
:102550002168C86849F20C6290432369A268E56962
:102560001A4363692B431A430243CA6021684869CE
:1025700020F44072A06910434861E1696425B1F517
:10258000004F9748974A21684FF032083FD0914258
:1025900001D081427CD1FEF7E5FD00EBC00101EBEB
:1025A000001061688900B0FBF1F6FEF7DBFD00EB7F
:1025B000C00101EB001061688900B0FBF1F0B0FBD5
:1025C000F5F06FF01801484306EB800108EB0110AD
:1025D000B0FBF5F000F0F006FEF7C4FD00EBC00123
:1025E00001EB001061688900B0FBF1F0B0FBF5F081
:1025F00006EB0016FEF7B6FD00EBC00101EB001084
:1026000061688900B0FBF1F7FEF7ACFDD2E09142C2
:1026100001D081423DD1FEF7A5FD00EBC00101EBE9
:10262000001061684900B0FBF1F0B0FBF5F0060165
:10263000FEF798FD00EBC00101EB00106168490056
:10264000B0FBF1F7FEF78EFD00EBC00101EB0010CF
:1026500061684900B0FBF1F0B0FBF5F06FF01801D4
:10266000484307EB800108EBC100B0FBF5F000F038
:10267000F80006EB4006FEF775FD00EBC00101EB2C
:10268000001061684900B0FBF1F7FEF76BFD3CE01C
:1026900055E0FEF751FD00EBC00101EB0010616851
:1026A0004900B0FBF1F0B0FBF5F00601FEF744FD88
:1026B00000EBC00101EB001061684900B0FBF1F7CD
:1026C000FEF73AFD00EBC00101EB00106168490024
:1026D000B0FBF1F0B0FBF5F06FF01801484307EBE9
:1026E000800108EBC100B0FBF5F000F0F80006EB4C
:1026F0004006FEF721FD00EBC00101EB0010616810
:102700004900B0FBF1F7FEF717FD00EBC00101EB4C
:10271000001061684900B0FBF1F0B0FBF5F06FF01C
:102720001801484307EB800108EBC100B0FBF5F04E
:1027300000F00700216830448860BDE8F081FEF7B2
:10274000FBFC00EBC00101EB001061688900B0FBED
:10275000F1F6FEF7F1FC00EBC00101EB001061683F
:102760008900B0FBF1F0B0FBF5F06FF018014843C1
:1027700006EB800108EB0110B0FBF5F000F0F0066D
:10278000FEF7DAFC00EBC00101EB00106168890084
:10279000B0FBF1F0B0FBF5F006EB0016FEF7CCFC59
:1027A00000EBC00101EB001061688900B0FBF1F79C
:1027B000FEF7C2FC00EBC00101EB0010616889006C
:1027C000B0FBF1F0B0FBF5F06FF01801484307EBF8
:1027D000800108EB0110B0FBF5F000F00F00A9E755
:1027E00000140140001001402DE9F0471D469046BD
:1027F0000E460446FEF74AF907465FEA08004FF026
:1028000000094FF0200808D032E0681C05D095B1CF
:10281000FEF73CF9C01BA8420DD82068006836EAD4
:102820000000F2D129E0681C22D025B1FEF72EF974
:10283000C01BA8421CD92068C16821F08001C1607A
:102840002068C16821F02001C1602068C16821F4BE
:102850008071C1602068416921F00101416184F803
:10286000398084F83A8084F838900320BDE8F087F6
:102870002068006836EA0000D5D00020F6E77047EF
:102880000FB4054B10B503A9044A029800F04AFBA7
:1028900010BC5DF814FB0000014D0008E0000020B2
:1028A00070B5D94B00242DED020B2DED108BDDE919
:1028B0001010984205DA20F000429A4201D809D15E
:1028C00041B19DED100BBDEC108B02B0BDE8704026
:1028D00000F0F6BAB0F5801F26DA11430BD00028BD
:1028E00013DA012000F018FBBDEC108B02B0BDE83C
:1028F000704000F0F1BA022000F00EFB00F0C8FAC0
:1029000051EC100B81F000419EE06FF035049FED1B
:10291000C00B53EC102B9DED100B51EC100BFDF781
:1029200027FDCDE91001084604EB2051C0F3130444
:10293000B948A1F2FF31204400F4801080F07F629A
:1029400082F04052224301EB20559FEDB50B1192CE
:1029500053EC102B9DED100B51EC100BFDF702FD0D
:1029600041EC180BA01CC0F313009FEDAFDB9FEDF3
:10297000B0EBB14E7E4403286CD296ED000B51ECC7
:10298000180B53EC102BFDF749FF1DD1002D01BF93
:1029900096ED000BBDEC108B02B070BD2846FDF724
:1029A00019FF41EC180B53EC1D2BFDF7E1FC41EC3A
:1029B000190B53EC1E2B51EC180BFDF7D9FC53EC03
:1029C000192BFDF72EFC3FE09FED9D0B51EC180BF2
:1029D00053EC102BFDF7CCFC9FED9B1B53EC112B04
:1029E000FDF7C3FC41EC190B53EC182B51EC180B01
:1029F000FDF7BEFC53EC192BFDF7BAFC41EC190BAB
:102A0000002D04BF53EC192B51EC180B1AD028469B
:102A1000FDF7E0FE41EC1A0B53EC1D2BFDF7A8FC73
:102A200053EC192BFDF7A1FC53EC182BFDF79AFC86
:102A300041EC180B53EC1E2B51EC1A0BFDF798FCD4
:102A400053EC182BFDF78EFCBDEC108B02B041EC63
:102A5000100B70BD9FED7E0B51EC180B53EC102B3F
:102A6000FDF7DFFB41EC100B51EC180B53EC102B76
:102A7000FDF7F0FC41EC190B2846FDF7ABFE41ECED
:102A80001B0B53EC192B51EC190BFDF771FC41ECAE
:102A90001A0B714853EC1A2B261851EC1A0BFDF740
:102AA00067FC41EC1F0B6D48C4F1510404F5D724B9
:102AB000B0EE4F0AF0EE6F0A0321784400F06CF993
:102AC00053EC1F2B51EC100BFDF752FC41EC1C0B8F
:102AD0006348B0EE4F0AF0EE6F0A0421784400F02C
:102AE0005BF953EC1A2B51EC100BFDF741FC34430E
:102AF00053EC1C2BFDF795FB41EC1C0B002C4CDD23
:102B00009FED510B51EC180B53EC102BFDF730FCE3
:102B100053EC182BFDF72CFC41EC1A0B55B353EC7E
:102B20001D2B51EC1B0BFDF723FC41EC1D0B53EC53
:102B30001C2B51EC1A0BFDF774FB53EC192BFDF712
:102B400017FC53EC1D2BFDF76CFB53EC1A2BFDF718
:102B50000CFC53EC182BFDF705FC41EC180B53EC67
:102B60001E2B51EC1B0BFDF703FC53EC182BFDF750
:102B7000F9FB69E753EC1C2B51EC1A0BFDF751FBE9
:102B800053EC192BFDF7F4FB53EC1A2BFDF7EDFB7F
:102B900053EC182BFDF7E9FB56E735B353EC1D2B2F
:102BA00051EC1B0BFDF7E4FB41EC1A0B53EC1C2B17
:102BB00051EC180BFDF7D6FB53EC192BFDF7D8FBA6
:102BC00053EC1A2BFDF7CEFB53EC182BFDF7CAFB89
:102BD00041EC180B53EC1E2B51EC1B0BFDF7C8FB03
:102BE00053EC182BFDF7BEFB2EE753EC1C2B51ECDE
:102BF000180BFDF7B7FB53EC192BFDF7B9FB53ECA2
:102C0000182BFDF7B2FB1FE70000F07F000000006B
:102C10000000000000005043645F09000000000055
:102C2000000000000000F03F763C7935EF39EA3DC6
:102C30000000E0FE422EE63FF832000000000000F7
:102C4000555555555555D53F000000000000E03F53
:102C5000000000000000004086EBF9FF7A31000020
:102C6000703100000000000070B5414A00252DEDD4
:102C7000020B2DED048BDDE90404944205DA24F007
:102C80000041914201D809D140B19DED040BBDEC4A
:102C9000048B02B0BDE8704000F012B9B4F5801F9B
:102CA00026DA08430BD0002C13DA012000F034F9A7
:102CB000BDEC048B02B0BDE8704000F00DB90220FD
:102CC00000F02AF900F0E4F851EC100B81F000411B
:102CD00046E09FED290B6FF0350553EC102B9DED71
:102CE000040B51EC100BFDF743FBCDE904010C463E
:102CF00005EB2450A0F2FF30C10F40F2FF32521A10
:102D000062F31F540844FDF765FD05949DED040B27
:102D100041EC180B51EC100B02F012F99FED181B4F
:102D200053EC112BFDF724FB9FED170B41EC190B16
:102D300053EC102B51EC180BFDF71AFB53EC192B2D
:102D4000FDF76FFA9FED120B41EC190B53EC102BB2
:102D500051EC180BFDF70CFB53EC192BFDF761FA46
:102D6000BDEC048B02B041EC100B70BD0000000004
:102D70000000F07F00000000000000000000504351
:102D80000EE526157BCBDB3F362BF111F3FE593DCB
:102D900000609F501344D33F70B504462DED028B65
:102DA0004D1E00EBC500B0EE408AF0EE608A90ED5B
:102DB000000B35F0060017D053EC182B51EC100B1C
:102DC000FDF7D6FA41EC100B6D1E04EBC50090ED3B
:102DD000001B51EC100B53EC112BFDF722FA41ECC8
:102DE000100B35F00600E7D1022D36D0042D1CD093
:102DF000062D1CBFBDEC028B70BD53EC182B51ECA3
:102E0000100BFDF7B5FA94ED0A1B53EC112BFDF7EF
:102E100008FA53EC182BFDF7ABFA94ED081B53ECB2
:102E2000112BFDF7FEF941EC100B53EC182B51EC74
:102E3000100BFDF79DFA94ED061B53EC112BFDF7DB
:102E4000F0F953EC182BFDF793FA94ED040B53ECC7
:102E5000102BFDF7E6F941EC100B53EC182B51EC5D
:102E6000100BFDF785FA94ED021B53EC112BFDF7C7
:102E7000D8F953EC182BFDF77BFA94ED001B53ECBB
:102E8000112BFDF7CEF9BDEC028B41EC100B70BDA0
:102E90009FED070B10B553EC102B9FED070B51EC7A
:102EA000100BFDF7D7FA41EC100B10BD000000002D
:102EB0000000000000000000000000000000F03FE3
:102EC00010B553EC102B51EC100BFDF7AAF941ECA7
:102ED000100B10BD000000009FED050B10B553EC6A
:102EE000102B51EC100BFDF7B5FA41EC100B10BD97
:102EF000000000000000000002E008C8121F08C126
:102F0000002AFAD170477047002001E001C1121F6A
:102F1000002AFBD17047000001490860704700009B
:102F2000E40000202DE9FF4F8DB00F460546002636
:102F300006E025280BD0DDE90F1290476D1C761CAA
:102F400028780028F5D111B03046BDE8F08F002474
:102F5000A246A1460122EC4900E0044315F8013FD6
:102F6000203B02FA03F00842F7D128782A2810D033
:102F70006FF02F022878A0F13001092914D80AEB4C
:102F80008A0102EB410144F0020400EB010A6D1CCE
:102F9000F0E701CF5FEA000A03D544F40054CAF118
:102FA000000A44F002046D1C28782E2817D115F869
:102FB000010F44F004042A280ED06FF02F02287865
:102FC000A0F1300109290AD809EB890102EB41017E
:102FD00000EB01096D1CF2E757F8049B6D1C287883
:102FE0006C280FD006DC4C2817D068280DD06A2832
:102FF00014D104E0742810D07A280FD10DE044F4E5
:1030000000140AE044F4801401E044F440146978A8
:10301000814202D104F580146D1C6D1C2A786E2A41
:103020001FD00CDC632A31D004DC002A8BD0582A54
:1030300011D1A3E0642A68D0692A0CD165E0732A13
:103040002ED004DC6F2A73D0702A04D19BE0752A3D
:103050006FD0782A6ED01046DDE90F129047761CAB
:1030600050E1C4F30250022806D0032809D00428F6
:1030700001CF09D0066045E101CFF117C0E9006139
:1030800040E101CF06803DE106703BE117F8040BFB
:103090008DF8000000208DF80100EB46012003E0D0
:1030A00057F804BB4FF0FF3061074FF0000102D426
:1030B0000DE008F10101884649450FDA8045F8DB4B
:1030C0001BF808100029F4D108E008F10101884636
:1030D0008142FADB1BF808100029F6D1DDE90F2345
:1030E000AAEB08008146214600F036F9304400EB97
:1030F000080604E0DDE90F121BF8010B9047B8F158
:103100000108F7D221464846F7E00A21C4F30253EA
:103110004FF0000B0891022B04D001CFC117032BF5
:1031200009D00AE0FF1D27F00707F7E8020108E0D1
:1031300032E01FE020E000B2C117042B01D140B201
:10314000C117031E71F1000307DA4FF0000CD0EB3A
:103150000C006CEB01012D2302E0230504D52B2389
:103160008DF82430012303E0E30701D02023F7E7A3
:10317000984658E00A2110E010210EE010204FF090
:10318000000B08900CE010214FF0000B44F00404F9
:103190004FF00809089103E008214FF0000B089157
:1031A000C4F30253022B04D001CF0021032B06D01D
:1031B00006E0FF1D27F00707F7E8020103E080B2F1
:1031C000042B00D1C0B24FF0000823072BD5702A82
:1031D00007D0DDF820C08CF0100C5CEA0B0C05D099
:1031E0000EE040238DF82430012308E050EA01036B
:1031F00006D030238DF824308DF825200223984600
:10320000DDF820C08CF0080C5CEA0B0C0BD150EA06
:10321000010301D1630706D530238DF824304FF028
:103220000108A9F10109582A04D038A20B9208AA72
:103230000A920BE03AA2F9E75B46089AFDF7D4F947
:103240000B9B9B5C0A9A521E0A92137050EA010271
:10325000F2D10A98ADEB000000F1200B600702D517
:1032600024F4803401E04FF00109D94502DDA9EBD7
:103270000B0000E0002000EB0B0141440890AAEB9A
:10328000010AE00306D4DDE90F232146504600F091
:1032900063F806444FF0000908E009A911F8090095
:1032A000DDE90F12904709F10109761CC145F4DBF5
:1032B000E0030CD5DDE90F232146504600F04CF821
:1032C000064404E0DDE90F1230209047761C08998F
:1032D000481E08900029F5DC08E00A980A99007851
:1032E000491C0A91DDE90F129047761CBBF10001E1
:1032F000ABF1010BF1DC21465046DDE90F2300F074
:1033000019F806446D1C1BE60928010030313233E0
:103310003435363738396162636465660000000011
:1033200030313233343536373839414243444546FB
:10333000000000002DE9F041044600251E46174616
:10334000880404D405E039462020B0476D1C641E73
:10335000F9D52846BDE8F0812DE9F0410446002565
:103360001E469046C80301D5302700E02027880478
:1033700004D505E041463846B0476D1C641EF9D5BA
:103380002846BDE8F081000010B501282DED068B20
:10339000B0EE60AAF0EE408A34D09FED1D1A9FED8A
:1033A0001D8A00BF11EE100AFDF7EFF82AEE0A0A97
:1033B00041EC190BC8EE800A10EE900AFDF7E5F813
:1033C00041EC100BFFF750FC9FED131B51EC100B61
:1033D00053EC112BFCF7CCFF53EC192BFCF7C2FF7D
:1033E000FDF7E6F800EE100A0D4910EE100A8842CB
:1033F00005D2DFED0C0A70EE200A00EE880ABDEC63
:10340000068B10BD9FED081A9FED088ACAE70000E1
:10341000E17AF3426D56953F000000000000244021
:103420000000B0C20000B042A470E7426D561540E3
:1034300010B50C460146064802F02EFB002804DBBE
:1034400003490A68411C515C2170C017401C10BD23
:10345000C000002010B502F095F8002815D00D49E5
:103460000B484860401D086000F0A8F908B10AA0A8
:1034700007E016A0FFF704FA02F070FB002806D15F
:103480001EA0BDE81040FFF7FBB929A0F9E710BD69
:1034900050080020C0000020434F4E464947093ADB
:1034A00020454550524F4D20636F6E6669677572B7
:1034B0006174696F6E207265616420616E6420764C
:1034C000657269666965640D0A000000434F4E46E7
:1034D0004947093A2057726974696E6720646566C6
:1034E00061756C7420454550524F4D20636F6E6678
:1034F000696775726174696F6E0D0A00434F4E46BD
:103500004947093A204572726F72207768656E20CC
:1035100077726974696E672064656661756C742082
:10352000636F6E66696775726174696F6E0D0A000C
:10353000434F4E464947093A20436F756C64206EED
:103540006F74207265616420646174612066726FBB
:103550006D20454550524F4D0D0A000010B50C46E8
:103560000146064802F098FA002804DB03490A687D
:10357000811C515C2170C017401C10BDC000002090
:1035800070B50D4601461646074802F085FA04005C
:1035900007D4054832460168A01C01442846FCF7C0
:1035A0000FFEE017401C70BDC000002038B50020A1
:1035B0008DF800000122694601F08EFB04460A20C6
:1035C000FDF747F9204638BD70B50C460546014663
:1035D000144802F061FA134A002803DB1168801CCA
:1035E0000C5411E00F481368416831F8030F1D5463
:1035F0000D88136801202B44587010680A88104405
:1036000084700888C01C088002F08EFA19220649CE
:10361000002001F061FB0A20FDF71BF901F0B2FF69
:10362000012070BDC0000020500800202DE9F041AD
:103630000F46054601461446184802F02DFA0028A8
:1036400003DB17A0FFF71CF918E0144806460268D0
:10365000716831F8033FD5540B8802681A445470DE
:1036600000680988224608443946801CFCF7A8FDFA
:103670007068A41C30F8031F2144018002F054FA42
:1036800019221149002001F027FB0A20FDF7E1F87B
:1036900001F078FF0120BDE8F0810000C0000020AB
:1036A000576974696E6720746865206C697374204B
:1036B0006973206E6F7420737570706F72746564B7
:1036C00021210D0A000000005008002070B50D4DAA
:1036D0000446024629780CA0FFF7D2F821460020C4
:1036E000FFF772FF29460020FFF738FF28B129783D
:1036F000BDE870400FA0FFF7C3B8BDE8704013A04D
:10370000FFF7BEB83A0000205570646174696E67B7
:1037100020616464726573732066726F6D20307807
:103720002530325820746F203078253032580D0AF9
:103730000000000044657669636520616464726519
:1037400073733A20307825580D0A00004465766975
:10375000636520616464726573733A204E6F7420F0
:10376000666F756E64210D0A0000000010B50446F6
:1037700007A0FFF785F801F0D3FE21460120FFF7EF
:1037800023FF09A0FFF77CF8BDE8104001F0C8BE98
:1037900050726576696F757320646576696365201C
:1037A0006D6F64653A2000004E6577206465766928
:1037B0006365206D6F64653A200000002DE9F041DB
:1037C0001348002544682078BC2805D011A0FFF7D5
:1037D00057F80020BDE8F08134F8030F164F801D24
:1037E0003844002210F8011C208801261346401D91
:1037F00003E0FC5C5B1C2244D2B29842F9DC8A42B2
:1038000001D13046E6E70D48FFF73AF82846E1E7F0
:10381000C0000020434F4E464947093A20454550D5
:10382000524F4D206D61676963206E6F7420666F23
:10383000756E64210D0A000050080020785C0008B5
:103840000846FDF706B87047416470470164704749
:103850003EB5044600200190029001230D2205216F
:1038600001A802F08BF801230A22052101A802F029
:1038700085F801231222052101A802F07FF8012317
:103880000C22052101A802F079F801230F2205215D
:1038900001A802F073F801230E22052101A802F00D
:1038A0006DF801231022052101A802F067F8012319
:1038B0001122052101A802F061F80520009001AB5A
:1038C00000220F21204600F0BBFD3EBD3EB5044660
:1038D00000200190029001230A22052101A802F094
:1038E0004DF80520009001AB00220F21204600F08A
:1038F000A7FD3EBD3EB50446002001900290012385
:103900000422052101A802F039F8052201231146FD
:1039100001A802F033F801230622052101A802F0D4
:103920002DF801230722052101A802F027F8052020
:10393000009001AB00220F21204600F081FD3EBD2A
:10394000F8B5054601F087F9284601F08EF92846BA
:1039500001F077F9284601F09BF9284601F08EF92D
:10396000284600F00BFE022405F138031E46002213
:1039700018212846009400F063FD334641F6040206
:103980002E212846009400F05BFDF8BD38B50446B2
:10399000002100F013F920680521C26820469047F5
:1039A00020680169204609B1884701E000F0E2FC87
:1039B000204600F094F92149884201D0012038BD09
:1039C00004F10D00FF2204210546FCF70BFC042046
:1039D00000902B4600220321204600F031FD0025F7
:1039E000C4F811502946204600F05EFC0121204613
:1039F00000F073FC204601F038F9C4F81550204659
:103A000001F03CF90121204600F0D8F8206805219A
:103A1000C26820469047204600F0C8FA2068052179
:103A2000C268204690470221204600F0C7F820686F
:103A30000521C26820469047002038BD3001CADE0B
:103A400070B50D46044600F04FF9DFED3E0A30EE4A
:103A5000200AFEEE000A20EE200A10EE100A6FEA9D
:103A6000D05010F0FF0F6CD0FDEEC00A10EE902A7F
:103A7000531C002A02DA0022134603E0112B01DD59
:103A800011221346002194F82D600846042E08D018
:103A9000072E06D094F82940012C19D0022C20D0F2
:103AA0002BE094F82940012C02D0022C0AD024E00B
:103AB000254809E049424900805C072A00DA404273
:103AC00040001AE020481230072BC15CF2DBF2E71D
:103AD0001D4824380A2BC15C00DA49420A2A08DB57
:103AE0000AE019481238082BC15C00DA4942082A5A
:103AF00002DA805C404200E0805C00EE902A091A05
:103B0000D5E90032F8EEE00A70EE600A00EE101A15
:103B1000B8EEC01A00EE100AB8EEC00A00EE810A34
:103B2000DFED0A0A20EE200ADFED090A20EE200A66
:103B3000BDEEC00A10EE100AC11718184A41C5E9B7
:103B4000000270BD00007442FF5B0008B3235543C0
:103B50006F12833A70B504460022262100F068FCFB
:103B600020F47F5040F4AA5300222621204600F082
:103B70008CFC00223621204600F05AFC40F404035D
:103B800000223621204600F080FC4FF488752B4639
:103B900028223621204600F078FC074B28223621C7
:103BA000204600F072FC2B462046BDE870402822DB
:103BB000362100F06ABC000010010F002DE9FC4125
:103BC00000260427CDE900760C46054601AB3246B7
:103BD000362100F001FC24B1012C10D0022C1AD0A7
:103BE00026E0286800218268284690478DF8046006
:103BF0009DF8050000F0FE008DF8050018E028682B
:103C000000218268284690479DF8040000F0FC00DF
:103C100040F001000AE028680121826828469047A8
:103C20009DF8040000F0FC0040F002008DF8040054
:103C30000120009001AB00223621284600F000FC54
:103C400001AB002236212846009700F0F9FBBDE8C1
:103C5000FC8170B50C460546097800F085FA61785C
:103C6000284600F070FBA178284600F04BFB0521A8
:103C7000284600F04FFA6078012805D00A2128462E
:103C8000BDE8704000F02FBB0421F8E708B5002A1A
:103C900005D00B4600920022112100F09DFB08BDCB
:103CA0001CB504460020217B022902D0012902D044
:103CB0000DE0608C09E00420009001AB002210218F
:103CC000204600F089FBBDF80400C0F3090094F819
:103CD0002F10002902D0022800D9801E1CBD00220E
:103CE000114600F0A5BB000010B504462DED028B77
:103CF0000622122100F093FB00EE100A2046B8EED7
:103D0000408A01F07DFEF0EE400A9FED060A94F82D
:103D1000290028EE000ABDEC028BBDE81040FFF739
:103D200033BB00000000004838B50C4605460020B3
:103D3000C4E90000052000902346002215212846F2
:103D400000F04AFB21462846BDE83840FFF778BE20
:103D500008B505220B4600920022172100F03CFB1B
:103D600008BD000070B5044600F0BDF9204600F023
:103D7000CDF8264D10B1286800B18047204600F0EC
:103D800010F938B1206C28B12046FFF7B3FD216C43
:103D900020468847204600F0FFF830B1686820B11F
:103DA0002046FFF793FD68688047204600F0CBF877
:103DB00030B1E06C20B12046FFF74AFDE16C09E02C
:103DC000204600F0E4F898B1A06C88B12046FFF7D7
:103DD0003FFDA16C2046884794F83000002814D09D
:103DE000204600F036F92046BDE8704000F056BB92
:103DF000204600F09EF8002807D0606C002804D010
:103E00002046FFF725FD616CE4E770BDC800002087
:103E100008B500218160027A00F1080342F04002F7
:103E2000027201730421009100220D2100F008FBB1
:103E300008BD000010B50446002002C4082144F863
:103E40000D0B0222A075E175012121766276052213
:103E5000A2760423E37622776077A17704F81F0F18
:103E6000890304F8240C04F10800303C01F050FEF2
:103E7000024820646064E06410BD00004738000818
:103E80000B4603220421153001F078BD70B50C46B5
:103E90000B46153012220521054601F06FFD234621
:103EA0000F220521284601F069FD23460C22052139
:103EB000284601F063FD23462846BDE870401022E5
:103EC000052101F05BBD0B4611220421153001F0E4
:103ED00055BD0B460A220421153001F04FBD70B5C7
:103EE0000C460B4615300D220421054601F046FD17
:103EF00023462846BDE870400E22042101F03EBD55
:103F00000B4607220421153001F038BD70B51D3075
:103F100019220521054600F001FF0446182205215B
:103F2000284600F0FBFE044301D0012070BD0020B4
:103F300070BD90F82F101D3009B10E2200E00D2247
:103F4000052100F0EBBE2DE9F0411D3012220521C4
:103F5000064600F0E3FE07460F220521304600F03A
:103F6000DDFE05460C220521304600F0D7FE044652
:103F700010220521304600F0D1FE47EA0502224317
:103F8000024302D00120BDE8F0810020FBE71122AE
:103F900005211D3000F0C2BE0A2205211D3000F0AF
:103FA000BDBE072205211D3000F0B8BEFEB50024BD
:103FB00004250746019401AB224636210095029460
:103FC00000F00AFA022602AB06222D21384600969E
:103FD00000F002FA01208DF8040003208DF805009E
:103FE0008DF8084080208DF8090001AB00223621B1
:103FF0003846009500F024FA02AB06222D213846FF
:10400000009600F01DFA38680521C26838469047CE
:104010008DF804408DF8056001AB0022362138464A
:10402000009500F00DFAFEBD10B50446FFF7F0FE56
:10403000204600F03BF8204600F042F8204600F011
:104040002BF8204600F059F82046BDE8104000F05B
:1040500040B810B50446FFF7DBFE0020A060204604
:10406000FFF7F6FB0120207310BD10B50446FFF7E3
:10407000CFFE0020A0602046FFF73CFC022020730A
:1040800010BD0000034908604FF0E0214020C1F856
:1040900000017047BC00002008B50421009100F128
:1040A000190300221F2100F097F908BD08B504216B
:1040B000009100F10D030022032100F08DF908BDED
:1040C00008B5042100F111030022009100F084F9E9
:1040D00008BD08B50421009100F1150300220E214E
:1040E00000F07AF908BD08B50521009100F11D0323
:1040F00000220F2100F070F908BD08B505210091DC
:1041000000F122030022082100F066F908BDC0E991
:104110000E23704701F00F0141EA0112427680F848
:104120002D10704738B5054690F82F00144600B1A1
:10413000941CB4F5806F15D27F2C03D995F8270015
:1041400000280FD00B46002209212846009400F0D9
:1041500077F905F8224FC4F30121687800F0E000F8
:104160000843687038BD00007CB5044690F8230011
:1041700011F0030500F0830040EA451084F82300A5
:1041800004F1110004F1190607D0002316220421BE
:1041900001F0F4FB022D2AD004E0012316220421B1
:1041A00001F0ECFB012311220421304601F0E6FB73
:1041B000012314220421304601F0E0FB01231522E3
:1041C0000421304601F0DAFB022D22D0012D22D04D
:1041D0005FF040008DF804000120009001AB002248
:1041E0002121204600F02CF984F82A507CBD0023C0
:1041F00011220421304601F0C1FB002314220421C6
:10420000304601F0BBFB002315220421304601F0AB
:10421000B5FB0820DEE71020DCE7000010B50446FF
:10422000007B02283CD001283AD0002838D1002158
:10423000204600F0E9FC0021204600F0F1FC0120BE
:1042400084F82F000021204600F035F80021204698
:1042500000F037F80021204600F039F8012120460F
:10426000FFF74EFE01212046FFF739FE01212046CF
:10427000FFF729FE00212046FFF708FE0021204617
:10428000FFF727FE00212046FFF7FAFD0121204617
:1042900000F06AF82046BDE810400249FFF7D9BC9B
:1042A00010BD0000D85B000881F001030C2204213E
:1042B000113001F063BB0B4600220421113001F0E4
:1042C0005DBB0B4603220421113001F057BB0B46A6
:1042D00006220421113001F051BB0B4609220421B2
:1042E000113001F04BBBC27E01F01F0102F03F0212
:1042F00042EA8112C2768A0842EAC102027780F855
:104300002C10704790F8242001F00F0102F0C30236
:1043100042EA810280F8242001290ED005290CD020
:1043200009290CD00D290AD002290AD05FF04002D9
:1043300080F8282080F82B1070470822F8E7102218
:10434000F6E72022F4E710F8242F01F0030102F031
:10435000FC020A4300F80929027802F0F30242EA5B
:1043600081020270817370470B461D2204211130B7
:1043700001F004BB7CB50424054601AB00223621C4
:10438000009400F029F801208DF8040001AB002210
:1043900036212846009400F053F800268DF8076077
:1043A00001AB324636212846009400F049F82868CF
:1043B0000A21C268284690478DF80460F0208DF8E5
:1043C000070001AB002236212846009400F038F89F
:1043D0002846FFF71DFD7CBD7CB5140001F03F01B0
:1043E000069E4FF001028DF8041012D041F04001FA
:1043F0008DF8041004F07F058DF80550E1094FF0A9
:10440000020206D045F080028DF805208DF80610D6
:104410000322009601680C6801A9A0477CBD1CB569
:104420000223009301ABFFF7D7FFBDF804001CBDCA
:104430001CB50423009301ABFFF7CEFF01981CBD10
:104440007CB501F03F01140041F08001069E4FF061
:1044500001028DF8041012D041F040018DF80410D3
:1044600004F07F058DF80550E1094FF0020206D0F7
:1044700045F080028DF805208DF806100322009685
:1044800001684C6801A9A0477CBD0FB581B0042329
:10449000009304ABFFF7D4FF05B000BD38B5044668
:1044A00090F82F00B0B1002304F10800002204218D
:1044B000054601F063FA012308220421284601F091
:1044C0005DFA042000902B4600220D212046FFF7C4
:1044D000B7FF38BD0123E7E738B5044600F0D8FB45
:1044E00094F82F0008B3002304F1080000220421EF
:1044F000054601F043FA01231A460421284601F03B
:104500003DFA042000902B4600220D212046FFF7A3
:1045100097FF94F830200021012042B1A160207360
:104520002046BDE83840FFF7B9BF0123DCE794F827
:1045300031200AB1207338BD217338BD18B101286C
:1045400003D003A0704706A0704708A07047000082
:10455000556B6E6F776E206572726F72000000008F
:104560004E6F206572726F720000000057726F6E9E
:10457000672063686970204944000000F0B5044674
:1045800090F8290093B0012802D0022804D009E055
:10459000022248F6700102E0022248F69B010AA8B6
:1045A00001F0B6FA0422F6490FA801F0B1FA02228E
:1045B000352110A801F0ACFA94F82A0020B10128A6
:1045C00005D0022806D00AE00222162104E00222C9
:1045D000062101E00222012108A801F099FA94F8CD
:1045E0002900012802D0022803D007E002228721F7
:1045F00001E002228D210BA801F08AFA94F82B0029
:1046000006280CD00A280AD0032808D0012894F8DC
:104610002A000DD0012808D0022806D00FE094F817
:104620002A0060B90222642106E00222202103E070
:10463000022804D10222102109A801F069FA94F895
:104640002800082806D0102811D020281CD0402887
:1046500027D035E094F82900012802D0022803D0A1
:104660002EE00422C74928E00422C74925E094F837
:104670002900012802D0022803D021E00422C349E6
:104680001BE00422C24918E094F82900012802D056
:10469000022803D014E00422BE490EE00422BE49E1
:1046A0000BE094F82900012802D0022803D007E08B
:1046B0000422BA4901E0BA49042203A801F028FA09
:1046C00094F82B004FF0020201280CD028210CA8EE
:1046D00001F01EFA94F82D00042806D0072804D013
:1046E0000122D82103E01021F1E70122BC210EA80C
:1046F00001F00EFA94F82D0001280AD002280CD0FF
:1047000003280DD004280ED0052810D0072811D07A
:1047100069E0042245F640410EE00422A1490BE085
:104720000422A14908E09F490422203904E0042220
:104730009E4901E09E49042204A801F0E9F994F899
:104740002D0001280AD002280BD003280CD0042801
:104750000DD005280ED007280FD044E00122C92132
:104760000DE00122C2210AE00122C52107E0012259
:10477000952104E00122C02101E00122932105A836
:1047800001F0C6F994F82D0001280AD0022810D0B3
:1047900004280ED0032814D005281AD0072818D0D2
:1047A00021E00422834906A801F0B2F901221E216A
:1047B00016E00422804906A801F0AAF90122262168
:1047C0000EE004227D4906A801F0A2F901225E2133
:1047D00006E004227A4906A801F09AF90122A621EE
:1047E00007A801F095F901220D2111A801F090F917
:1047F00094F82900012802D0022804D009E00222FE
:1048000041F2076102E0022240F207610DA801F0C7
:104810007FF994F82C0001281ED002281CD0032810
:1048200025D0082823D004282CD0052835D00628E8
:104830003ED0072847D009284FD00A2858D0112841
:1048400056D00B285FD00C2868D0122873D01328BC
:1048500071D014287AD083E094F82A004FF0020235
:1048600010B145F6981178E040F6333175E094F8D0
:104870002A004FF0020210B145F2EA116DE040F655
:104880003D216AE094F82A004FF0020210B144F290
:104890008E2162E040F651015FE094F82A004FF06B
:1048A000020210B144F21E5157E040F6A30154E059
:1048B00094F82A004FF0020210B142F614614CE065
:1048C00040F2C25149E094F82A004FF0020208B1C8
:1048D000910342E04FF480513FE094F82A004FF0FA
:1048E000020210B142F6F40137E040F21E5134E00A
:1048F00094F82A004FF0020210B143F232312CE05A
:1049000040F2666129E094F82A004FF0020210B1EB
:1049100043F6E02121E040F25C711EE094F82A00A9
:104920004FF0020210B143F6705116E040F2AE7142
:1049300013E000E00AE094F82A004FF0020210B100
:1049400043F2C25109E04FF4D76106E094F82A001F
:104950004FF0020298B144F2AE7101A801F0D8F80C
:1049600094F82D00012830D002282ED0032847D0FB
:10497000042860D005287BD007286ED0B0E021E065
:1049800007A902252D001A316B003B3152001A3362
:10499000BE003B339A001A355E013B351D011A37C4
:1049A00096023B37A05C0400C06C0800E03F1E008C
:1049B000E07D1E00070400090805400809104008B2
:1049C0001D04000840F6F501C7E794F82900012806
:1049D00002D002280AD083E094F82E004FF004029F
:1049E00008B17F4979E04FF0753176E094F82E00F8
:1049F0004FF0040208B17B496FE04FF067316CE083
:104A000094F82900012802D002280AD068E094F81E
:104A10002E004FF0040208B173495EE04FF06F3191
:104A20005BE094F82E004FF0040208B16F4954E0A7
:104A30004FF08B3151E094F82900012802D0022870
:104A40000CD04DE094F82E004FF0040208B16849F4
:104A500043E04FF05F3140E00AE024E094F82E009C
:104A60004FF0040208B1634937E04FF09A3134E067
:104A700094F82900012802D002280AD030E094F8E6
:104A80002E004FF0040208B15B4926E04FF0483198
:104A900023E094F82E004FF0040208B157491CE0BF
:104AA0004FF0853119E094F82900012802D002283E
:104AB0000AD015E094F82E004FF0040208B15049D6
:104AC0000BE04FF0923108E094F82E004FF0040212
:104AD00008B14C4901E04FF0D13102A801F018F8BB
:104AE00002250AAB0422232120460095FFF7A8FCEB
:104AF00004260FAB0C22232120460096FFF7A0FCD2
:104B000010AB1222232120460095FFF799FC08AB39
:104B10000222272120460095FFF792FC0BAB0422CE
:104B2000272120460095FFF78BFC09AB06222721A1
:104B300020460095FFF784FC03AB0822272120467E
:104B40000096FFF77DFC0CAB26222721204600951E
:104B5000FFF776FC012711AB40F606022E21204616
:104B60000097FFF76DFC0DAB41F606022E212046A3
:104B70000095FFF765FC01AB42F604022E212046AA
:104B80000095FFF75DFC02AB00221E212046009637
:104B9000FFF756FC0EAB0B22282120460097FFF7AB
:104BA0004FFC04AB0C22282120460096FFF748FC5E
:104BB00005AB0B222A2120460097FFF741FC07ABEB
:104BC0000B222B2120460097FFF73AFC06AB072269
:104BD0002B2120460096FFF733FC13B0F0BD0000F8
:104BE00075553515674727076F4F2F0F8B6B4B2B6D
:104BF0005F3F1F1F9A7A5A3A4828080E8565452557
:104C000092725232D1B1715109B1032200E00022F7
:104C100080F82720C17C01F0FC011143C17470476A
:104C200080F82E1081F0010312220421113000F0CF
:104C3000A5BE80F831100B4607220421083000F091
:104C40009DBE08B50421009100F1190300221F2127
:104C5000FFF7F6FB08BD08B50421009100F10D0334
:104C600000220321FFF7ECFB08BD08B5042100F189
:104C7000110300220091FFF7E3FB08BD08B50421F2
:104C8000009100F1150300220E21FFF7D9FB08BDAA
:104C900008B50521009100F1220300220821FFF749
:104CA000CFFB08BD0149486070470000D0000020DC
:104CB0000EB5642392B28DE80E0082B2054810232F
:104CC0000188406889B2FBF76BFF08B100200EBD78
:104CD00001200EBDD00000200EB5642392B28DE8F5
:104CE0000E0082B2054810230188406889B2FCF7A3
:104CF00041F808B100200EBD01200EBDD0000020FB
:104D000038B501248DF800002246A31E69460248EA
:104D1000FDF710F8204638BD00010020D3088B4273
:104D200001D300207047C05C02F00701C84000F0CA
:104D30000100704710B5372826D012DC332823D065
:104D400008DC23283DD030281ED031281CD0322842
:104D50003BD119E0342817D0352815D0362834D166
:104D600012E0642819D007DC38280DD039280BD080
:104D700061282AD100200DE068281ED0732808D0B1
:104D8000742822D1012005E03038C0B2FEF79EFC25
:104D90000EE00220FEF7EAFC0AE00CA0FDF770FD31
:104DA000FEF704FC08B112A000E013A0FDF768FDB7
:104DB000BDE8104012A0FDF763BDBDE8104000F053
:104DC00051B81FA0FDF75CFDFEE710BD526573658D
:104DD0007474696E6720454550524F4D20636F6E65
:104DE00066696775726174696F6E2E2E2E00000001
:104DF0004F4B0D0A000000004552524F520D0A0061
:104E0000454550524F4D20636F6E666967757261FC
:104E100074696F6E206368616E6765642C207265CB
:104E2000737461727420666F7220697420746F20CD
:104E300074616B6520656666656374210D0A000008
:104E400053797374656D2068616C7465642C20728D
:104E50006573657420746F20636F6E74696E756519
:104E60000D0A000010B50DA0FDF70AFD0DA0FDF71D
:104E700007FD12A0FDF704FD15A0FDF701FD19A027
:104E8000FDF7FEFC1CA0FDF7FBFC21A0FDF7F8FCE4
:104E9000BDE8104025A0FDF7F3BC000048656C702C
:104EA0000D0A00002D2D2D2D2D2D2D2D2D2D2D2DCF
:104EB0002D2D2D2D2D2D2D0D0A000000302D3920EA
:104EC0002D2073657420616464726573730D0A002C
:104ED000612020202D20616E63686F72206D6F64E9
:104EE000650D0A00742020202D20746167206D6FED
:104EF00064650D0A00000000732020202D20736ED1
:104F00006966666572206D6F64650D0A00000000B9
:104F1000642020202D20726573657420636F6E6697
:104F2000696775726174696F6E0D0A0068202020D0
:104F30002D20546869732068656C700D0A000000AC
:104F400010B541EC100BFDF7ABFC51EC100B10BD94
:104F50001CB50025A84644468DF804508DF8005035
:104F60002E462F46FBF7AEFFFDF774FAFDF742F928
:104F7000F148F04901604FF4E131C0E901140C211E
:104F8000C460C0E904418461C461FCF703FEFDF71D
:104F9000A1F9FDF789F9FDF7DFF84FF4806A504673
:104FA000FDF704F94FF4006B5846FDF7FFF84FF496
:104FB0008050FDF7FBF8E1A0FDF762FCE648FFF743
:104FC00071FEFEF747FAE5490020FEF7C7FA28B15F
:104FD000E2480178E2A0FDF753FC02E0E7A0FDF70C
:104FE0004FFCDE4901203A39FEF7B8FADB4C3A3C77
:104FF000002828D0E9A0FDF743FC207828B101283B
:1050000005D0022805D0EAA004E0ECA002E0EEA062
:1050100000E0EFA0FDF734FC69460220FEF708FA35
:10502000DFF83893A9F10609F0B19DF80020494650
:105030000220FEF7A5FA00287ED09DF80010E7A018
:10504000FDF71EFC08E0EFA0E4E700BF19F805102B
:10505000F3A0FDF715FC6D1C9DF800008542F5DB03
:10506000C5A000BFFDF70CFCEFA0FDF709FCF74958
:10507000E069FEF7DFFEE069FFF704F8E069FEF79C
:1050800085FC002868D0FFF759FA0146F0A0FDF72B
:10509000F7FB5846FDF78AF84FF4FA70FBF7D9FB97
:1050A0004FF48060FDF770F84FF40060FDF76CF886
:1050B0004FF48050FDF768F8E948D0E90023E06933
:1050C000FFF725F8E749E069FEF7C0FBE649E0692C
:1050D000FEF7BAFBE069FEF7A7FFE069FFF79EF86D
:1050E000E249E069FEF7B5FD0221E069FFF712F839
:1050F0000921E069FFF7F7F8E069FEF721FCDCA081
:10510000FDF7BEFBE1A0FDF7BBFBDFF82CA20AF127
:10511000950A9AF8001021F00701491C21F0380186
:1051200041F040018AF800109AF8011021F0300196
:1051300041F00C01103100E00CE041F0C0018AF8B0
:1051400001104BF6CF41AAF80310207860B1022875
:105150000AD012E0D5A085E7DFA0FDF791FBE0695A
:10516000FEF7F8FC504695E7E069FEF772FFE0694C
:10517000FFF754F8E069FFF791F90023012201A934
:105180006D48FCF781FD18B99DF80400FFF7D2FDCA
:10519000207802283ED12069216A884204D0D0A01C
:1051A000FDF76EFB20692062D4E90210884231D0FD
:1051B000DFF884B100EB001000EB80010BF1EA0B8B
:1051C00001EB0B004279417BC8A0FDF759FB00259C
:1051D0000BF2525B0DE000BF00EB001000EB800112
:1051E0005548EA3008442844417DC6A0FDF748FBF5
:1051F0006D1CE0685BF820101539A942ECDC401CFE
:10520000C11700EB117121F00F01401AE0605AA0A4
:10521000FDF736FB207801284AD1DFF81CB10025C4
:105220000BF1680B4D4819F8051008300170E06962
:10523000FEF7EEFD01218AF815106178491C6170B6
:105240008AF81610D4F83A10CBF83A10D4F83E1079
:105250005846CBF83E10D4F8421040F8321FD4F82C
:1052600046104160E069FEF700FFE069FEF7D6FFF7
:10527000314917229531E069FEF754FF0121E069B9
:10528000FFF7D7FCE069FFF727F9FBF7FFFB606149
:1052900084F8028001E0A07828B9FBF7F7FB616988
:1052A0000A318842F7D3FBF7F1FB6D1C042DB9DB03
:1052B000FBF7ECFBA1690A31884203D984F803802B
:1052C000FF202071FBF7E2FB07F1FA01884208D9C1
:1052D000FBF7DCFB074686F001064FF40060FCF7A5
:1052E00077FFFBF7D3FB616A3231884205D226B1E2
:1052F0004FF48060FCF75AFF03E04FF48060FCF746
:1053000043FF207898B101280CD0022810D04FF428
:105310008050FCF74BFF4FF40060FCF747FF4FF461
:105320008060F3E04FF48050FCF72EFF25E7F3E0B8
:10533000EFE00000001001400001002054455354EC
:10534000093A20454550524F4D2073656C662D74C7
:105350006573740D0A0000006C0800203A000020FC
:10536000434F4E464947093A20416464726573735E
:1053700020697320307825580D0A0000434F4E46AF
:105380004947093A2041646472657373206E6F74F3
:1053900020666F756E64210D0A000000434F4E4673
:1053A0004947093A204D6F64652069732000000069
:1053B000554E4B4E4F574E0D0A000000416E63682C
:1053C0006F720D0A000000005461670D0A000000B2
:1053D000536E69666665720D0A000000434F4E46C3
:1053E0004947093A20546167206D6F646520616EFA
:1053F00063686F72206C69737420282569293A20CC
:1054000000000000446576696365206D6F64653A4D
:10541000204E6F7420666F756E64210D0A000000C7
:10542000307825303258200054455354093A2049E9
:105430006E697469616C697A652044574D3130300A
:1054400030202E2E2E200D0A00000000A800002083
:105450005B4552524F525D3A2025730D0A00000001
:10546000D05B0008C95A0008D1550008235C000829
:1054700053595354454D093A204E6F646520737457
:105480006172746564202E2E2E0D0A0053595354F8
:10549000454D093A205072657373202768272066AE
:1054A0006F722068656C702E0D0A0000434F4E46E7
:1054B0004947093A20546167206D6F646520616E29
:1054C00063686F72206C6973743A204E6F74206643
:1054D0006F756E64210D0A005B4F4B5D0D0A000075
:1054E00044726F70706564210D0A000046726F6D22
:1054F000202530327820746F202530327820646186
:10550000746120003078253032782000FCF74EFEA0
:1055100033E6002E3FF406AF4FF48050F6E700006C
:1055200008B569460120FEF719F898B19DF800000A
:1055300028B1012805D0022805D007A004E008A062
:1055400002E009A000E009A0FDF79AF909A0FDF723
:1055500097F908BD08A0F7E7554E4B4E4F574E0040
:10556000416E63686F72000054616700536E696634
:10557000666572000D0A00004E6F7420666F756ECE
:105580006421000010B5192205490020FFF790FBA7
:1055900008B1012010BD03A0FDF772F9002010BD75
:1055A00050080020434F4E464947093A204661695A
:1055B0006C656420746F207265616420646174613D
:1055C0002066726F6D20454550524F4D210D0A00E7
:1055D0002DE9F14F2DED0A8B82B00C98FEF760FBA0
:1055E00005004BD01521DC48FAF703FEDB4C207890
:1055F00002280DD02A46D8490C98FEF747FBD64D15
:10560000082204F13A01681DFAF7FEFD30BB26E0DE
:10561000A068411CCA1701EB127222F00F02891A0E
:10562000E268914203D12069401C20611DE0CA4913
:1056300000EB001000EB8000AA3101442A460C98D0
:10564000FEF724FBC649A06841F82050401CC11752
:1056500000EB117121F00F01401AA06005E0E07825
:1056600088B1687B217988420DD00C98FEF7F1FC57
:105670000C98FEF7D3FD0C98FEF710FF02B0BDECBE
:105680000A8BBDE8F88FB449B34F2831A1F18000EF
:105690005537D0F8652041F8322FD0F869204A609C
:1056A00050F85D2F8A604068C860687D4FF0010B3C
:1056B00001287DD002287CD0DFF8A0A203280AF1BF
:1056C000800A77D00428D9D1A97D6278A7F13E005D
:1056D000A9469142D2D1D0F80080C4F86080017907
:1056E00084F86410D0F80550A566417A84F86C10EF
:1056F000D0F80A70CAF80070807B8AF80400AAF11A
:105700001000066818380068301AFAF712FF41ECEA
:10571000180BA5EB0800FAF70CFF41EC1A0B781BED
:10572000FAF707FF41EC190BAAF108000068801B8B
:10573000FAF7FFFE41EC1B0B53EC192B51EC180B45
:10574000FAF76FFD53EC1A2BFAF76BFD53EC1B2B9A
:10575000FAF767FD41EC1C0B53EC1B2B51EC1A0BB9
:10576000FAF706FE41EC1A0B53EC192B51EC180B0F
:10577000FAF7FEFD53EC1A2BFAF7F4FD53EC1C2B51
:10578000FAF768FE9FED771B53EC112BFAF762FED8
:105790009FED761B53EC112BFAF7EAFD41EC100B51
:1057A000D4E91401401C41F100019FED721B02E09D
:1057B00014E07EE03CE0C4E9140153EC112B51EC01
:1057C000100BFAF7D5FDFAF7C1FE634999F80D20E1
:1057D0005839042A41F822007ED0B6E0687B207157
:1057E00084F803B0FBF752F9A061FBF74FF9606250
:1057F00002207875A87DB8750C98FEF736FC0C98D9
:10580000FEF70CFD5449172255310C98FEF78AFC1F
:1058100001210C98FFF70DFA0C98FEF75DFE694622
:105820000C98FEF781FADDE90001C4E9180125E7CB
:10583000494E69466C360C98FEF776FADDE900129F
:105840005046C0E9001204217975A97DB975216E11
:1058500046F8031B94F864107170A16EC6F802102C
:1058600094F86C10B171DAF80010C6F807100079DE
:10587000F072A06AF060E06A3061206B706160795C
:1058800030760C98FEF7F1FB0C98FEF7C7FC324916
:10589000332255310C98FEF745FC01210C98FFF797
:1058A000C8F90C98FEF718FEFF2020710020E07068
:1058B000E4E6A87D61788842B9D103217975B8758D
:1058C0000C98FEF7D2FB2449172255310C98FEF7AD
:1058D00029FC01210C9800E00DE0FFF7AAF90C98D3
:1058E000FEF7FAFD69460C98FEF71EFADDE90001A5
:1058F000C4E91C01C2E619484A688830130A82715B
:10590000C371130C0372120E42728A68C272130AB8
:105910000373130C4373120E8273CA680274130A62
:105920004374130C8374120EC274096941750A0A18
:1059300082750A0CC275090E0176014606484FF0C1
:10594000FF331B224038FCF7F5F969460C98FEF747
:10595000EBF984F802B091E640010020000000203D
:105960003C0700200000000030C12D420000004A2A
:1059700078DEB1410000000000408F4010B5D4082F
:105980008C420AD22044012102F0070291400278A1
:105990000BB10A4300E08A43027010BD2DE9F041CB
:1059A000144F164688461D46002210213846069C94
:1059B000FBF767F8324641460F48FAF701FCB2B2EE
:1059C0004FF0FF3633460C490C48FBF701FFA2B2FB
:1059D000334609490948FBF7FFFD22460649284698
:1059E000FAF7EEFB3846BDE8F04101221021FBF743
:1059F00048B8000000000240D0070020B008002096
:105A00001CB50421009101AB00221021FEF7E4FC3B
:105A10009DF806009DF80710000940EA011000EE0D
:105A2000100AB8EE400A1CBD09B1FCF76FBCFCF7C8
:105A300051BC00002DE9F041144E15460F46984622
:105A4000002210213046069CFBF71BF82A463946F7
:105A50000F48FAF7B5FBAAB24FF0FF352B460C49B9
:105A60000C48FBF7B5FE224641460948FAF7A8FB69
:105A7000A2B22B4606490748FBF7AAFE3046BDE80E
:105A8000F04101221021FAF7FCBF000000000240A3
:105A9000D0070020B008002030B50A4A0346002095
:105AA0005268B2F8032008E01C68255C8D4208D0DB
:105AB000451C801C645D204480B28242F4D84FF0C3
:105AC000FF3030BDC00000201CB56946FEF740F92C
:105AD0000D480E4C407D012808D002280ED0032826
